{
  "_format": "hh-sol-artifact-1",
  "contractName": "SBT",
  "sourceName": "contracts/SBT.sol",
  "abi": [
    {
      "anonymous": false,
      "inputs": [
        {
          "indexed": false,
          "internalType": "address",
          "name": "_soul",
          "type": "address"
        }
      ],
      "name": "Attest",
      "type": "event"
    },
    {
      "anonymous": false,
      "inputs": [
        {
          "indexed": false,
          "internalType": "address",
          "name": "_soul",
          "type": "address"
        }
      ],
      "name": "Burn",
      "type": "event"
    },
    {
      "anonymous": false,
      "inputs": [
        {
          "indexed": false,
          "internalType": "address",
          "name": "_soul",
          "type": "address"
        }
      ],
      "name": "Mint",
      "type": "event"
    },
    {
      "anonymous": false,
      "inputs": [
        {
          "indexed": false,
          "internalType": "address",
          "name": "_profiler",
          "type": "address"
        },
        {
          "indexed": false,
          "internalType": "address",
          "name": "_soul",
          "type": "address"
        }
      ],
      "name": "RemoveProfile",
      "type": "event"
    },
    {
      "anonymous": false,
      "inputs": [
        {
          "indexed": false,
          "internalType": "uint256",
          "name": "_tokenId",
          "type": "uint256"
        }
      ],
      "name": "Revoke",
      "type": "event"
    },
    {
      "anonymous": false,
      "inputs": [
        {
          "indexed": false,
          "internalType": "address",
          "name": "_profiler",
          "type": "address"
        },
        {
          "indexed": false,
          "internalType": "address",
          "name": "_soul",
          "type": "address"
        }
      ],
      "name": "SetProfile",
      "type": "event"
    },
    {
      "anonymous": false,
      "inputs": [
        {
          "indexed": false,
          "internalType": "address",
          "name": "_soul",
          "type": "address"
        }
      ],
      "name": "Update",
      "type": "event"
    },
    {
      "inputs": [
        {
          "internalType": "uint256",
          "name": "",
          "type": "uint256"
        }
      ],
      "name": "SbtToSoul",
      "outputs": [
        {
          "internalType": "address",
          "name": "",
          "type": "address"
        }
      ],
      "stateMutability": "view",
      "type": "function"
    },
    {
      "inputs": [
        {
          "internalType": "address",
          "name": "_targetSoul",
          "type": "address"
        },
        {
          "internalType": "bool",
          "name": "_reputation",
          "type": "bool"
        },
        {
          "internalType": "string",
          "name": "_explanation_url",
          "type": "string"
        }
      ],
      "name": "attest",
      "outputs": [],
      "stateMutability": "nonpayable",
      "type": "function"
    },
    {
      "inputs": [
        {
          "internalType": "address",
          "name": "_soul",
          "type": "address"
        }
      ],
      "name": "burn",
      "outputs": [],
      "stateMutability": "nonpayable",
      "type": "function"
    },
    {
      "inputs": [
        {
          "internalType": "uint256",
          "name": "_sbt",
          "type": "uint256"
        }
      ],
      "name": "getSbt",
      "outputs": [
        {
          "components": [
            {
              "internalType": "uint256",
              "name": "tokenId",
              "type": "uint256"
            },
            {
              "internalType": "address",
              "name": "attester",
              "type": "address"
            },
            {
              "internalType": "bool",
              "name": "reputation",
              "type": "bool"
            },
            {
              "internalType": "string",
              "name": "explanation_url",
              "type": "string"
            },
            {
              "internalType": "bool",
              "name": "active",
              "type": "bool"
            }
          ],
          "internalType": "struct SBT.Sbt",
          "name": "",
          "type": "tuple"
        }
      ],
      "stateMutability": "view",
      "type": "function"
    },
    {
      "inputs": [
        {
          "internalType": "address",
          "name": "_soul",
          "type": "address"
        }
      ],
      "name": "getSbtsBySoul",
      "outputs": [
        {
          "components": [
            {
              "internalType": "uint256",
              "name": "tokenId",
              "type": "uint256"
            },
            {
              "internalType": "address",
              "name": "attester",
              "type": "address"
            },
            {
              "internalType": "bool",
              "name": "reputation",
              "type": "bool"
            },
            {
              "internalType": "string",
              "name": "explanation_url",
              "type": "string"
            },
            {
              "internalType": "bool",
              "name": "active",
              "type": "bool"
            }
          ],
          "internalType": "struct SBT.Sbt[]",
          "name": "",
          "type": "tuple[]"
        }
      ],
      "stateMutability": "view",
      "type": "function"
    },
    {
      "inputs": [
        {
          "internalType": "address",
          "name": "_soul",
          "type": "address"
        }
      ],
      "name": "getSoul",
      "outputs": [
        {
          "components": [
            {
              "internalType": "string",
              "name": "identity",
              "type": "string"
            },
            {
              "internalType": "string",
              "name": "url",
              "type": "string"
            },
            {
              "internalType": "uint256",
              "name": "score",
              "type": "uint256"
            },
            {
              "internalType": "uint256",
              "name": "timestamp",
              "type": "uint256"
            }
          ],
          "internalType": "struct SBT.Soul",
          "name": "",
          "type": "tuple"
        }
      ],
      "stateMutability": "view",
      "type": "function"
    },
    {
      "inputs": [
        {
          "internalType": "address",
          "name": "_soul",
          "type": "address"
        }
      ],
      "name": "hasSbt",
      "outputs": [
        {
          "internalType": "bool",
          "name": "",
          "type": "bool"
        }
      ],
      "stateMutability": "view",
      "type": "function"
    },
    {
      "inputs": [
        {
          "internalType": "address",
          "name": "_soul",
          "type": "address"
        }
      ],
      "name": "hasSoul",
      "outputs": [
        {
          "internalType": "bool",
          "name": "",
          "type": "bool"
        }
      ],
      "stateMutability": "view",
      "type": "function"
    },
    {
      "inputs": [
        {
          "internalType": "address",
          "name": "_soul",
          "type": "address"
        },
        {
          "components": [
            {
              "internalType": "string",
              "name": "identity",
              "type": "string"
            },
            {
              "internalType": "string",
              "name": "url",
              "type": "string"
            },
            {
              "internalType": "uint256",
              "name": "score",
              "type": "uint256"
            },
            {
              "internalType": "uint256",
              "name": "timestamp",
              "type": "uint256"
            }
          ],
          "internalType": "struct SBT.Soul",
          "name": "_soulData",
          "type": "tuple"
        }
      ],
      "name": "mint",
      "outputs": [],
      "stateMutability": "nonpayable",
      "type": "function"
    },
    {
      "inputs": [
        {
          "internalType": "uint256",
          "name": "_tokenId",
          "type": "uint256"
        }
      ],
      "name": "revoke",
      "outputs": [],
      "stateMutability": "nonpayable",
      "type": "function"
    },
    {
      "inputs": [
        {
          "internalType": "uint256",
          "name": "",
          "type": "uint256"
        }
      ],
      "name": "sbts",
      "outputs": [
        {
          "internalType": "uint256",
          "name": "tokenId",
          "type": "uint256"
        },
        {
          "internalType": "address",
          "name": "attester",
          "type": "address"
        },
        {
          "internalType": "bool",
          "name": "reputation",
          "type": "bool"
        },
        {
          "internalType": "string",
          "name": "explanation_url",
          "type": "string"
        },
        {
          "internalType": "bool",
          "name": "active",
          "type": "bool"
        }
      ],
      "stateMutability": "view",
      "type": "function"
    },
    {
      "inputs": [
        {
          "internalType": "address",
          "name": "",
          "type": "address"
        }
      ],
      "name": "soulSbtCount",
      "outputs": [
        {
          "internalType": "uint256",
          "name": "",
          "type": "uint256"
        }
      ],
      "stateMutability": "view",
      "type": "function"
    },
    {
      "inputs": [
        {
          "internalType": "address",
          "name": "_soul",
          "type": "address"
        },
        {
          "components": [
            {
              "internalType": "string",
              "name": "identity",
              "type": "string"
            },
            {
              "internalType": "string",
              "name": "url",
              "type": "string"
            },
            {
              "internalType": "uint256",
              "name": "score",
              "type": "uint256"
            },
            {
              "internalType": "uint256",
              "name": "timestamp",
              "type": "uint256"
            }
          ],
          "internalType": "struct SBT.Soul",
          "name": "_soulData",
          "type": "tuple"
        }
      ],
      "name": "update",
      "outputs": [],
      "stateMutability": "nonpayable",
      "type": "function"
    }
  ],
  "bytecode": "0x60806040527fc5d2460186f7233c927e7db2dcc703c0e500b653ca82273b7bfad8045d85a47060001b600655600060075534801561003c57600080fd5b506125db8061004c6000396000f3fe608060405234801561001057600080fd5b50600436106100cf5760003560e01c806366cfe97f1161008c57806389afcb441161006657806389afcb4414610248578063b900825114610264578063bdd7520214610298578063dce4aa1b146102c8576100cf565b806366cfe97f146101b857806371dec1d6146101e857806387b605a514610218576100cf565b80630c168bf7146100d457806320a2d60b146100f057806320c5429b1461010c578063251d315714610128578063352451c114610158578063375577b414610188575b600080fd5b6100ee60048036038101906100e99190611984565b6102e4565b005b61010a60048036038101906101059190611ae3565b610634565b005b61012660048036038101906101219190611b3f565b61079a565b005b610142600480360381019061013d9190611b3f565b610a0a565b60405161014f9190611b7b565b60405180910390f35b610172600480360381019061016d9190611b96565b610a3d565b60405161017f9190611bd2565b60405180910390f35b6101a2600480360381019061019d9190611b96565b610a55565b6040516101af9190611dda565b60405180910390f35b6101d260048036038101906101cd9190611b96565b610d48565b6040516101df9190611e66565b60405180910390f35b61020260048036038101906101fd9190611b3f565b610ed9565b60405161020f9190611efe565b60405180910390f35b610232600480360381019061022d9190611b96565b61103d565b60405161023f9190611f2f565b60405180910390f35b610262600480360381019061025d9190611b96565b6110e0565b005b61027e60048036038101906102799190611b3f565b61138a565b60405161028f959493929190611f94565b60405180910390f35b6102b260048036038101906102ad9190611b96565b611492565b6040516102bf9190611f2f565b60405180910390f35b6102e260048036038101906102dd9190611ae3565b611506565b005b600654600360008573ffffffffffffffffffffffffffffffffffffffff1673ffffffffffffffffffffffffffffffffffffffff16815260200190815260200160002060000160405161033691906120ed565b60405180910390200361037e576040517f08c379a000000000000000000000000000000000000000000000000000000000815260040161037590612176565b60405180910390fd5b600654600360003373ffffffffffffffffffffffffffffffffffffffff1673ffffffffffffffffffffffffffffffffffffffff1681526020019081526020016000206000016040516103d091906120ed565b604051809103902003610418576040517f08c379a000000000000000000000000000000000000000000000000000000000815260040161040f90612208565b60405180910390fd5b60006040518060a0016040528060075481526020013373ffffffffffffffffffffffffffffffffffffffff16815260200184151581526020018381526020016001151581525090806001815401808255809150506001900390600052602060002090600402016000909190919091506000820151816000015560208201518160010160006101000a81548173ffffffffffffffffffffffffffffffffffffffff021916908373ffffffffffffffffffffffffffffffffffffffff16021790555060408201518160010160146101000a81548160ff0219169083151502179055506060820151816002019080519060200190610514929190611640565b5060808201518160030160006101000a81548160ff02191690831515021790555050508260026000600754815260200190815260200160002060006101000a81548173ffffffffffffffffffffffffffffffffffffffff021916908373ffffffffffffffffffffffffffffffffffffffff160217905550600160008473ffffffffffffffffffffffffffffffffffffffff1673ffffffffffffffffffffffffffffffffffffffff16815260200190815260200160002060008154809291906105db90612257565b9190505550600760008154809291906105f390612257565b91905055507fa328081b89fa2a8c125b882f505f0a9ef17623cd428d7de77f609076d85d25e0836040516106279190611b7b565b60405180910390a1505050565b600654600360008473ffffffffffffffffffffffffffffffffffffffff1673ffffffffffffffffffffffffffffffffffffffff16815260200190815260200160002060000160405161068691906120ed565b6040518091039020146106ce576040517f08c379a00000000000000000000000000000000000000000000000000000000081526004016106c5906122eb565b60405180910390fd5b80600360008473ffffffffffffffffffffffffffffffffffffffff1673ffffffffffffffffffffffffffffffffffffffff168152602001908152602001600020600082015181600001908051906020019061072a929190611640565b506020820151816001019080519060200190610747929190611640565b5060408201518160020155606082015181600301559050507f3c3284d117c92d0b1699230960384e794dcba184cc48ff114fe4fed20c9b05658260405161078e9190611b7b565b60405180910390a15050565b6007548111156107df576040517f08c379a00000000000000000000000000000000000000000000000000000000081526004016107d690612357565b60405180910390fd5b60011515600082815481106107f7576107f6612377565b5b906000526020600020906004020160030160009054906101000a900460ff16151514610858576040517f08c379a000000000000000000000000000000000000000000000000000000000815260040161084f906123f2565b60405180910390fd5b3373ffffffffffffffffffffffffffffffffffffffff166000828154811061088357610882612377565b5b906000526020600020906004020160010160009054906101000a900473ffffffffffffffffffffffffffffffffffffffff1673ffffffffffffffffffffffffffffffffffffffff161461090b576040517f08c379a00000000000000000000000000000000000000000000000000000000081526004016109029061245e565b60405180910390fd5b600160006002600084815260200190815260200160002060009054906101000a900473ffffffffffffffffffffffffffffffffffffffff1673ffffffffffffffffffffffffffffffffffffffff1673ffffffffffffffffffffffffffffffffffffffff168152602001908152602001600020600081548092919061098e9061247e565b919050555060008082815481106109a8576109a7612377565b5b906000526020600020906004020160030160006101000a81548160ff0219169083151502179055507fdb43aa42235c8d63908794a952603e8d43a549383d13123c3d893a3fc2e62495816040516109ff9190611bd2565b60405180910390a150565b60026020528060005260406000206000915054906101000a900473ffffffffffffffffffffffffffffffffffffffff1681565b60016020528060005260406000206000915090505481565b60606000600160008473ffffffffffffffffffffffffffffffffffffffff1673ffffffffffffffffffffffffffffffffffffffff1681526020019081526020016000205467ffffffffffffffff811115610ab257610ab1611859565b5b604051908082528060200260200182016040528015610aeb57816020015b610ad86116c6565b815260200190600190039081610ad05790505b5090506000805b600080549050811015610d3d578473ffffffffffffffffffffffffffffffffffffffff166002600083815260200190815260200160002060009054906101000a900473ffffffffffffffffffffffffffffffffffffffff1673ffffffffffffffffffffffffffffffffffffffff16148015610ba357506001151560008281548110610b8057610b7f612377565b5b906000526020600020906004020160030160009054906101000a900460ff161515145b15610d2a5760008181548110610bbc57610bbb612377565b5b90600052602060002090600402016040518060a0016040529081600082015481526020016001820160009054906101000a900473ffffffffffffffffffffffffffffffffffffffff1673ffffffffffffffffffffffffffffffffffffffff1673ffffffffffffffffffffffffffffffffffffffff1681526020016001820160149054906101000a900460ff16151515158152602001600282018054610c609061201d565b80601f0160208091040260200160405190810160405280929190818152602001828054610c8c9061201d565b8015610cd95780601f10610cae57610100808354040283529160200191610cd9565b820191906000526020600020905b815481529060010190602001808311610cbc57829003601f168201915b505050505081526020016003820160009054906101000a900460ff161515151581525050838381518110610d1057610d0f612377565b5b60200260200101819052508180610d2690612257565b9250505b8080610d3590612257565b915050610af2565b508192505050919050565b610d5061170f565b600360008373ffffffffffffffffffffffffffffffffffffffff1673ffffffffffffffffffffffffffffffffffffffff168152602001908152602001600020604051806080016040529081600082018054610daa9061201d565b80601f0160208091040260200160405190810160405280929190818152602001828054610dd69061201d565b8015610e235780601f10610df857610100808354040283529160200191610e23565b820191906000526020600020905b815481529060010190602001808311610e0657829003601f168201915b50505050508152602001600182018054610e3c9061201d565b80601f0160208091040260200160405190810160405280929190818152602001828054610e689061201d565b8015610eb55780601f10610e8a57610100808354040283529160200191610eb5565b820191906000526020600020905b815481529060010190602001808311610e9857829003601f168201915b50505050508152602001600282015481526020016003820154815250509050919050565b610ee16116c6565b60008281548110610ef557610ef4612377565b5b90600052602060002090600402016040518060a0016040529081600082015481526020016001820160009054906101000a900473ffffffffffffffffffffffffffffffffffffffff1673ffffffffffffffffffffffffffffffffffffffff1673ffffffffffffffffffffffffffffffffffffffff1681526020016001820160149054906101000a900460ff16151515158152602001600282018054610f999061201d565b80601f0160208091040260200160405190810160405280929190818152602001828054610fc59061201d565b80156110125780601f10610fe757610100808354040283529160200191611012565b820191906000526020600020905b815481529060010190602001808311610ff557829003601f168201915b505050505081526020016003820160009054906101000a900460ff1615151515815250509050919050565b600080600090505b6000805490508110156110d5578273ffffffffffffffffffffffffffffffffffffffff166002600083815260200190815260200160002060009054906101000a900473ffffffffffffffffffffffffffffffffffffffff1673ffffffffffffffffffffffffffffffffffffffff16036110c25760019150506110db565b80806110cd90612257565b915050611045565b50600090505b919050565b8073ffffffffffffffffffffffffffffffffffffffff163373ffffffffffffffffffffffffffffffffffffffff161461114e576040517f08c379a000000000000000000000000000000000000000000000000000000000815260040161114590612519565b60405180910390fd5b60005b60008054905081101561129a578173ffffffffffffffffffffffffffffffffffffffff166002600083815260200190815260200160002060009054906101000a900473ffffffffffffffffffffffffffffffffffffffff1673ffffffffffffffffffffffffffffffffffffffff160361128757600081815481106111d8576111d7612377565b5b90600052602060002090600402016000808201600090556001820160006101000a81549073ffffffffffffffffffffffffffffffffffffffff02191690556001820160146101000a81549060ff021916905560028201600061123a9190611737565b6003820160006101000a81549060ff021916905550506002600082815260200190815260200160002060006101000a81549073ffffffffffffffffffffffffffffffffffffffff02191690555b808061129290612257565b915050611151565b50600360008273ffffffffffffffffffffffffffffffffffffffff1673ffffffffffffffffffffffffffffffffffffffff168152602001908152602001600020600080820160006112eb9190611737565b6001820160006112fb9190611737565b600282016000905560038201600090555050600160008273ffffffffffffffffffffffffffffffffffffffff1673ffffffffffffffffffffffffffffffffffffffff168152602001908152602001600020600090557fe22de1457cb61fb61b60176bc4235a9abd19466126b46692bc14fc573f0992498160405161137f9190611b7b565b60405180910390a150565b6000818154811061139a57600080fd5b90600052602060002090600402016000915090508060000154908060010160009054906101000a900473ffffffffffffffffffffffffffffffffffffffff16908060010160149054906101000a900460ff16908060020180546113fc9061201d565b80601f01602080910402602001604051908101604052809291908181526020018280546114289061201d565b80156114755780601f1061144a57610100808354040283529160200191611475565b820191906000526020600020905b81548152906001019060200180831161145857829003601f168201915b5050505050908060030160009054906101000a900460ff16905085565b6000600654600360008473ffffffffffffffffffffffffffffffffffffffff1673ffffffffffffffffffffffffffffffffffffffff1681526020019081526020016000206000016040516114e691906120ed565b6040518091039020036114fc5760009050611501565b600190505b919050565b8173ffffffffffffffffffffffffffffffffffffffff163373ffffffffffffffffffffffffffffffffffffffff1614611574576040517f08c379a000000000000000000000000000000000000000000000000000000000815260040161156b90612585565b60405180910390fd5b80600360008473ffffffffffffffffffffffffffffffffffffffff1673ffffffffffffffffffffffffffffffffffffffff16815260200190815260200160002060008201518160000190805190602001906115d0929190611640565b5060208201518160010190805190602001906115ed929190611640565b5060408201518160020155606082015181600301559050507fd456720fd185d4060f5cea4d82775d2af95048c1e10f227ec35bae950a4be2a8826040516116349190611b7b565b60405180910390a15050565b82805461164c9061201d565b90600052602060002090601f01602090048101928261166e57600085556116b5565b82601f1061168757805160ff19168380011785556116b5565b828001600101855582156116b5579182015b828111156116b4578251825591602001919060010190611699565b5b5090506116c29190611777565b5090565b6040518060a0016040528060008152602001600073ffffffffffffffffffffffffffffffffffffffff168152602001600015158152602001606081526020016000151581525090565b6040518060800160405280606081526020016060815260200160008152602001600081525090565b5080546117439061201d565b6000825580601f106117555750611774565b601f0160209004906000526020600020908101906117739190611777565b5b50565b5b80821115611790576000816000905550600101611778565b5090565b6000604051905090565b600080fd5b600080fd5b600073ffffffffffffffffffffffffffffffffffffffff82169050919050565b60006117d3826117a8565b9050919050565b6117e3816117c8565b81146117ee57600080fd5b50565b600081359050611800816117da565b92915050565b60008115159050919050565b61181b81611806565b811461182657600080fd5b50565b60008135905061183881611812565b92915050565b600080fd5b600080fd5b6000601f19601f8301169050919050565b7f4e487b7100000000000000000000000000000000000000000000000000000000600052604160045260246000fd5b61189182611848565b810181811067ffffffffffffffff821117156118b0576118af611859565b5b80604052505050565b60006118c3611794565b90506118cf8282611888565b919050565b600067ffffffffffffffff8211156118ef576118ee611859565b5b6118f882611848565b9050602081019050919050565b82818337600083830152505050565b6000611927611922846118d4565b6118b9565b90508281526020810184848401111561194357611942611843565b5b61194e848285611905565b509392505050565b600082601f83011261196b5761196a61183e565b5b813561197b848260208601611914565b91505092915050565b60008060006060848603121561199d5761199c61179e565b5b60006119ab868287016117f1565b93505060206119bc86828701611829565b925050604084013567ffffffffffffffff8111156119dd576119dc6117a3565b5b6119e986828701611956565b9150509250925092565b600080fd5b600080fd5b6000819050919050565b611a10816119fd565b8114611a1b57600080fd5b50565b600081359050611a2d81611a07565b92915050565b600060808284031215611a4957611a486119f3565b5b611a5360806118b9565b9050600082013567ffffffffffffffff811115611a7357611a726119f8565b5b611a7f84828501611956565b600083015250602082013567ffffffffffffffff811115611aa357611aa26119f8565b5b611aaf84828501611956565b6020830152506040611ac384828501611a1e565b6040830152506060611ad784828501611a1e565b60608301525092915050565b60008060408385031215611afa57611af961179e565b5b6000611b08858286016117f1565b925050602083013567ffffffffffffffff811115611b2957611b286117a3565b5b611b3585828601611a33565b9150509250929050565b600060208284031215611b5557611b5461179e565b5b6000611b6384828501611a1e565b91505092915050565b611b75816117c8565b82525050565b6000602082019050611b906000830184611b6c565b92915050565b600060208284031215611bac57611bab61179e565b5b6000611bba848285016117f1565b91505092915050565b611bcc816119fd565b82525050565b6000602082019050611be76000830184611bc3565b92915050565b600081519050919050565b600082825260208201905092915050565b6000819050602082019050919050565b611c22816119fd565b82525050565b611c31816117c8565b82525050565b611c4081611806565b82525050565b600081519050919050565b600082825260208201905092915050565b60005b83811015611c80578082015181840152602081019050611c65565b83811115611c8f576000848401525b50505050565b6000611ca082611c46565b611caa8185611c51565b9350611cba818560208601611c62565b611cc381611848565b840191505092915050565b600060a083016000830151611ce66000860182611c19565b506020830151611cf96020860182611c28565b506040830151611d0c6040860182611c37565b5060608301518482036060860152611d248282611c95565b9150506080830151611d396080860182611c37565b508091505092915050565b6000611d508383611cce565b905092915050565b6000602082019050919050565b6000611d7082611bed565b611d7a8185611bf8565b935083602082028501611d8c85611c09565b8060005b85811015611dc85784840389528151611da98582611d44565b9450611db483611d58565b925060208a01995050600181019050611d90565b50829750879550505050505092915050565b60006020820190508181036000830152611df48184611d65565b905092915050565b60006080830160008301518482036000860152611e198282611c95565b91505060208301518482036020860152611e338282611c95565b9150506040830151611e486040860182611c19565b506060830151611e5b6060860182611c19565b508091505092915050565b60006020820190508181036000830152611e808184611dfc565b905092915050565b600060a083016000830151611ea06000860182611c19565b506020830151611eb36020860182611c28565b506040830151611ec66040860182611c37565b5060608301518482036060860152611ede8282611c95565b9150506080830151611ef36080860182611c37565b508091505092915050565b60006020820190508181036000830152611f188184611e88565b905092915050565b611f2981611806565b82525050565b6000602082019050611f446000830184611f20565b92915050565b600082825260208201905092915050565b6000611f6682611c46565b611f708185611f4a565b9350611f80818560208601611c62565b611f8981611848565b840191505092915050565b600060a082019050611fa96000830188611bc3565b611fb66020830187611b6c565b611fc36040830186611f20565b8181036060830152611fd58185611f5b565b9050611fe46080830184611f20565b9695505050505050565b7f4e487b7100000000000000000000000000000000000000000000000000000000600052602260045260246000fd5b6000600282049050600182168061203557607f821691505b60208210810361204857612047611fee565b5b50919050565b600081905092915050565b60008190508160005260206000209050919050565b6000815461207b8161201d565b612085818661204e565b945060018216600081146120a057600181146120b1576120e4565b60ff198316865281860193506120e4565b6120ba85612059565b60005b838110156120dc578154818901526001820191506020810190506120bd565b838801955050505b50505092915050565b60006120f9828461206e565b915081905092915050565b7f43616e6e6f742073656e642053425420746f20536f756c20746861742068617360008201527f206e6f74206265656e206d696e74656400000000000000000000000000000000602082015250565b6000612160603083611f4a565b915061216b82612104565b604082019050919050565b6000602082019050818103600083015261218f81612153565b9050919050565b7f41747465737465722068617320746f2068617665206120536f756c207468656d60008201527f73656c7665730000000000000000000000000000000000000000000000000000602082015250565b60006121f2602683611f4a565b91506121fd82612196565b604082019050919050565b60006020820190508181036000830152612221816121e5565b9050919050565b7f4e487b7100000000000000000000000000000000000000000000000000000000600052601160045260246000fd5b6000612262826119fd565b91507fffffffffffffffffffffffffffffffffffffffffffffffffffffffffffffffff820361229457612293612228565b5b600182019050919050565b7f536f756c20616c72656164792065786973747300000000000000000000000000600082015250565b60006122d5601383611f4a565b91506122e08261229f565b602082019050919050565b60006020820190508181036000830152612304816122c8565b9050919050565b7f456e746572656420546f6b656e496420646f6573206e6f742065786973740000600082015250565b6000612341601e83611f4a565b915061234c8261230b565b602082019050919050565b6000602082019050818103600083015261237081612334565b9050919050565b7f4e487b7100000000000000000000000000000000000000000000000000000000600052603260045260246000fd5b7f5342542068617320616c7265616479206265656e207265766f6b656400000000600082015250565b60006123dc601c83611f4a565b91506123e7826123a6565b602082019050919050565b6000602082019050818103600083015261240b816123cf565b9050919050565b7f4f6e6c79206174746573746572206d6179207265766f6b6520546f6b656e0000600082015250565b6000612448601e83611f4a565b915061245382612412565b602082019050919050565b600060208201905081810360008301526124778161243b565b9050919050565b6000612489826119fd565b91506000820361249c5761249b612228565b5b600182039050919050565b7f4f6e6c7920536f756c204f776e657220686176652072696768747320746f206460008201527f656c657465207468656972206461746100000000000000000000000000000000602082015250565b6000612503603083611f4a565b915061250e826124a7565b604082019050919050565b60006020820190508181036000830152612532816124f6565b9050919050565b7f4f6e6c792075736572732063616e2075706461746520736f756c206461746100600082015250565b600061256f601f83611f4a565b915061257a82612539565b602082019050919050565b6000602082019050818103600083015261259e81612562565b905091905056fea2646970667358221220426e3c7c5d0bf55f043941fd53744a4181c819d0df3c501a3e78371a41cafc7664736f6c634300080d0033",
  "linkReferences": {},
  "deployedLinkReferences": {}
}