{
  "_format": "hh-sol-artifact-1",
  "contractName": "SBT",
  "sourceName": "contracts/SBT.sol",
  "abi": [
    {
      "anonymous": false,
      "inputs": [
        {
          "indexed": false,
          "internalType": "address",
          "name": "_soul",
          "type": "address"
        }
      ],
      "name": "Attest",
      "type": "event"
    },
    {
      "anonymous": false,
      "inputs": [
        {
          "indexed": false,
          "internalType": "address",
          "name": "_soul",
          "type": "address"
        }
      ],
      "name": "Burn",
      "type": "event"
    },
    {
      "anonymous": false,
      "inputs": [
        {
          "indexed": false,
          "internalType": "address",
          "name": "_soul",
          "type": "address"
        }
      ],
      "name": "Mint",
      "type": "event"
    },
    {
      "anonymous": false,
      "inputs": [
        {
          "indexed": false,
          "internalType": "address",
          "name": "_profiler",
          "type": "address"
        },
        {
          "indexed": false,
          "internalType": "address",
          "name": "_soul",
          "type": "address"
        }
      ],
      "name": "RemoveProfile",
      "type": "event"
    },
    {
      "anonymous": false,
      "inputs": [
        {
          "indexed": false,
          "internalType": "uint256",
          "name": "_tokenId",
          "type": "uint256"
        }
      ],
      "name": "Revoke",
      "type": "event"
    },
    {
      "anonymous": false,
      "inputs": [
        {
          "indexed": false,
          "internalType": "address",
          "name": "_profiler",
          "type": "address"
        },
        {
          "indexed": false,
          "internalType": "address",
          "name": "_soul",
          "type": "address"
        }
      ],
      "name": "SetProfile",
      "type": "event"
    },
    {
      "anonymous": false,
      "inputs": [
        {
          "indexed": false,
          "internalType": "address",
          "name": "_soul",
          "type": "address"
        }
      ],
      "name": "Update",
      "type": "event"
    },
    {
      "inputs": [
        {
          "internalType": "uint256",
          "name": "",
          "type": "uint256"
        }
      ],
      "name": "SbtToSoul",
      "outputs": [
        {
          "internalType": "address",
          "name": "",
          "type": "address"
        }
      ],
      "stateMutability": "view",
      "type": "function"
    },
    {
      "inputs": [
        {
          "internalType": "address",
          "name": "_targetSoul",
          "type": "address"
        },
        {
          "internalType": "bool",
          "name": "_reputation",
          "type": "bool"
        },
        {
          "internalType": "string",
          "name": "_explanation_url",
          "type": "string"
        }
      ],
      "name": "attest",
      "outputs": [],
      "stateMutability": "nonpayable",
      "type": "function"
    },
    {
      "inputs": [
        {
          "internalType": "address",
          "name": "_soul",
          "type": "address"
        }
      ],
      "name": "burn",
      "outputs": [],
      "stateMutability": "nonpayable",
      "type": "function"
    },
    {
      "inputs": [
        {
          "internalType": "address",
          "name": "_profiler",
          "type": "address"
        },
        {
          "internalType": "address",
          "name": "_soul",
          "type": "address"
        }
      ],
      "name": "getProfile",
      "outputs": [
        {
          "components": [
            {
              "internalType": "string",
              "name": "identity",
              "type": "string"
            },
            {
              "internalType": "string",
              "name": "url",
              "type": "string"
            },
            {
              "internalType": "uint256",
              "name": "score",
              "type": "uint256"
            },
            {
              "internalType": "uint256",
              "name": "timestamp",
              "type": "uint256"
            }
          ],
          "internalType": "struct SBT.Soul",
          "name": "",
          "type": "tuple"
        }
      ],
      "stateMutability": "view",
      "type": "function"
    },
    {
      "inputs": [
        {
          "internalType": "uint256",
          "name": "_sbt",
          "type": "uint256"
        }
      ],
      "name": "getSbt",
      "outputs": [
        {
          "components": [
            {
              "internalType": "uint256",
              "name": "tokenId",
              "type": "uint256"
            },
            {
              "internalType": "address",
              "name": "attester",
              "type": "address"
            },
            {
              "internalType": "bool",
              "name": "reputation",
              "type": "bool"
            },
            {
              "internalType": "string",
              "name": "explanation_url",
              "type": "string"
            },
            {
              "internalType": "bool",
              "name": "active",
              "type": "bool"
            },
            {
              "internalType": "uint256",
              "name": "timestamp",
              "type": "uint256"
            }
          ],
          "internalType": "struct SBT.Sbt",
          "name": "",
          "type": "tuple"
        }
      ],
      "stateMutability": "view",
      "type": "function"
    },
    {
      "inputs": [
        {
          "internalType": "address",
          "name": "_soul",
          "type": "address"
        }
      ],
      "name": "getSbtsBySoul",
      "outputs": [
        {
          "components": [
            {
              "internalType": "uint256",
              "name": "tokenId",
              "type": "uint256"
            },
            {
              "internalType": "address",
              "name": "attester",
              "type": "address"
            },
            {
              "internalType": "bool",
              "name": "reputation",
              "type": "bool"
            },
            {
              "internalType": "string",
              "name": "explanation_url",
              "type": "string"
            },
            {
              "internalType": "bool",
              "name": "active",
              "type": "bool"
            },
            {
              "internalType": "uint256",
              "name": "timestamp",
              "type": "uint256"
            }
          ],
          "internalType": "struct SBT.Sbt[]",
          "name": "",
          "type": "tuple[]"
        }
      ],
      "stateMutability": "view",
      "type": "function"
    },
    {
      "inputs": [
        {
          "internalType": "address",
          "name": "_soul",
          "type": "address"
        }
      ],
      "name": "getSoul",
      "outputs": [
        {
          "components": [
            {
              "internalType": "string",
              "name": "identity",
              "type": "string"
            },
            {
              "internalType": "string",
              "name": "url",
              "type": "string"
            },
            {
              "internalType": "uint256",
              "name": "score",
              "type": "uint256"
            },
            {
              "internalType": "uint256",
              "name": "timestamp",
              "type": "uint256"
            }
          ],
          "internalType": "struct SBT.Soul",
          "name": "",
          "type": "tuple"
        }
      ],
      "stateMutability": "view",
      "type": "function"
    },
    {
      "inputs": [
        {
          "internalType": "address",
          "name": "_profiler",
          "type": "address"
        },
        {
          "internalType": "address",
          "name": "_soul",
          "type": "address"
        }
      ],
      "name": "hasProfile",
      "outputs": [
        {
          "internalType": "bool",
          "name": "",
          "type": "bool"
        }
      ],
      "stateMutability": "view",
      "type": "function"
    },
    {
      "inputs": [
        {
          "internalType": "address",
          "name": "_soul",
          "type": "address"
        }
      ],
      "name": "hasSbt",
      "outputs": [
        {
          "internalType": "bool",
          "name": "",
          "type": "bool"
        }
      ],
      "stateMutability": "view",
      "type": "function"
    },
    {
      "inputs": [
        {
          "internalType": "address",
          "name": "_soul",
          "type": "address"
        }
      ],
      "name": "hasSoul",
      "outputs": [
        {
          "internalType": "bool",
          "name": "",
          "type": "bool"
        }
      ],
      "stateMutability": "view",
      "type": "function"
    },
    {
      "inputs": [
        {
          "internalType": "address",
          "name": "_soul",
          "type": "address"
        }
      ],
      "name": "listProfiles",
      "outputs": [
        {
          "internalType": "address[]",
          "name": "",
          "type": "address[]"
        }
      ],
      "stateMutability": "view",
      "type": "function"
    },
    {
      "inputs": [
        {
          "internalType": "address",
          "name": "_soul",
          "type": "address"
        },
        {
          "internalType": "string",
          "name": "identity",
          "type": "string"
        },
        {
          "internalType": "string",
          "name": "url",
          "type": "string"
        }
      ],
      "name": "mint",
      "outputs": [],
      "stateMutability": "nonpayable",
      "type": "function"
    },
    {
      "inputs": [
        {
          "internalType": "address",
          "name": "_profiler",
          "type": "address"
        },
        {
          "internalType": "address",
          "name": "_soul",
          "type": "address"
        }
      ],
      "name": "removeProfile",
      "outputs": [],
      "stateMutability": "nonpayable",
      "type": "function"
    },
    {
      "inputs": [
        {
          "internalType": "uint256",
          "name": "_tokenId",
          "type": "uint256"
        }
      ],
      "name": "revoke",
      "outputs": [],
      "stateMutability": "nonpayable",
      "type": "function"
    },
    {
      "inputs": [
        {
          "internalType": "uint256",
          "name": "",
          "type": "uint256"
        }
      ],
      "name": "sbts",
      "outputs": [
        {
          "internalType": "uint256",
          "name": "tokenId",
          "type": "uint256"
        },
        {
          "internalType": "address",
          "name": "attester",
          "type": "address"
        },
        {
          "internalType": "bool",
          "name": "reputation",
          "type": "bool"
        },
        {
          "internalType": "string",
          "name": "explanation_url",
          "type": "string"
        },
        {
          "internalType": "bool",
          "name": "active",
          "type": "bool"
        },
        {
          "internalType": "uint256",
          "name": "timestamp",
          "type": "uint256"
        }
      ],
      "stateMutability": "view",
      "type": "function"
    },
    {
      "inputs": [
        {
          "internalType": "address",
          "name": "_soul",
          "type": "address"
        },
        {
          "components": [
            {
              "internalType": "string",
              "name": "identity",
              "type": "string"
            },
            {
              "internalType": "string",
              "name": "url",
              "type": "string"
            },
            {
              "internalType": "uint256",
              "name": "score",
              "type": "uint256"
            },
            {
              "internalType": "uint256",
              "name": "timestamp",
              "type": "uint256"
            }
          ],
          "internalType": "struct SBT.Soul",
          "name": "_soulData",
          "type": "tuple"
        }
      ],
      "name": "setProfile",
      "outputs": [],
      "stateMutability": "nonpayable",
      "type": "function"
    },
    {
      "inputs": [
        {
          "internalType": "address",
          "name": "",
          "type": "address"
        }
      ],
      "name": "soulSbtCount",
      "outputs": [
        {
          "internalType": "uint256",
          "name": "",
          "type": "uint256"
        }
      ],
      "stateMutability": "view",
      "type": "function"
    },
    {
      "inputs": [
        {
          "internalType": "address",
          "name": "_soul",
          "type": "address"
        },
        {
          "internalType": "string",
          "name": "identity",
          "type": "string"
        },
        {
          "internalType": "string",
          "name": "url",
          "type": "string"
        }
      ],
      "name": "update",
      "outputs": [],
      "stateMutability": "nonpayable",
      "type": "function"
    }
  ],
  "bytecode": "0x60806040527fc5d2460186f7233c927e7db2dcc703c0e500b653ca82273b7bfad8045d85a47060001b600655600060075534801561003c57600080fd5b5061316e8061004c6000396000f3fe608060405234801561001057600080fd5b50600436106101165760003560e01c806387b605a5116100a2578063b900825111610071578063b900825114610327578063bb419e1b1461035c578063bdd7520214610378578063d904176d146103a8578063f5a3317d146103c457610116565b806387b605a51461028f57806389afcb44146102bf57806396367d4c146102db578063990711901461030b57610116565b806330cff224116100e957806330cff2241461019f578063352451c1146101cf578063375577b4146101ff57806366cfe97f1461022f57806371dec1d61461025f57610116565b80630c168bf71461011b57806320c5429b14610137578063251d3157146101535780633094544314610183575b600080fd5b610135600480360381019061013091906121fa565b6103f4565b005b610151600480360381019061014c919061229f565b610754565b005b61016d6004803603810190610168919061229f565b6109c4565b60405161017a91906122db565b60405180910390f35b61019d600480360381019061019891906122f6565b6109f7565b005b6101b960048036038101906101b49190612381565b610b4f565b6040516101c691906124c2565b60405180910390f35b6101e960048036038101906101e491906124e4565b610d1e565b6040516101f69190612520565b60405180910390f35b610219600480360381019061021491906124e4565b610d36565b60405161022691906126a4565b60405180910390f35b610249600480360381019061024491906124e4565b611033565b60405161025691906124c2565b60405180910390f35b6102796004803603810190610274919061229f565b6111c4565b604051610286919061274f565b60405180910390f35b6102a960048036038101906102a491906124e4565b611332565b6040516102b69190612780565b60405180910390f35b6102d960048036038101906102d491906124e4565b6113d5565b005b6102f560048036038101906102f091906124e4565b611687565b604051610302919061284a565b60405180910390f35b610325600480360381019061032091906122f6565b611754565b005b610341600480360381019061033c919061229f565b6118dc565b604051610353969594939291906128b6565b60405180910390f35b610376600480360381019061037191906129d8565b6119ea565b005b610392600480360381019061038d91906124e4565b611c2f565b60405161039f9190612780565b60405180910390f35b6103c260048036038101906103bd9190612381565b611ca3565b005b6103de60048036038101906103d99190612381565b611dfd565b6040516103eb9190612780565b60405180910390f35b600654600360008573ffffffffffffffffffffffffffffffffffffffff1673ffffffffffffffffffffffffffffffffffffffff1681526020019081526020016000206000016040516104469190612b33565b60405180910390200361048e576040517f08c379a000000000000000000000000000000000000000000000000000000000815260040161048590612bbc565b60405180910390fd5b600654600360003373ffffffffffffffffffffffffffffffffffffffff1673ffffffffffffffffffffffffffffffffffffffff1681526020019081526020016000206000016040516104e09190612b33565b604051809103902003610528576040517f08c379a000000000000000000000000000000000000000000000000000000000815260040161051f90612c4e565b60405180910390fd5b60006040518060c0016040528060075481526020013373ffffffffffffffffffffffffffffffffffffffff16815260200184151581526020018381526020016001151581526020014281525090806001815401808255809150506001900390600052602060002090600502016000909190919091506000820151816000015560208201518160010160006101000a81548173ffffffffffffffffffffffffffffffffffffffff021916908373ffffffffffffffffffffffffffffffffffffffff16021790555060408201518160010160146101000a81548160ff021916908315150217905550606082015181600201908051906020019061062a929190611eaf565b5060808201518160030160006101000a81548160ff02191690831515021790555060a0820151816004015550508260026000600754815260200190815260200160002060006101000a81548173ffffffffffffffffffffffffffffffffffffffff021916908373ffffffffffffffffffffffffffffffffffffffff160217905550600160008473ffffffffffffffffffffffffffffffffffffffff1673ffffffffffffffffffffffffffffffffffffffff16815260200190815260200160002060008154809291906106fb90612c9d565b91905055506007600081548092919061071390612c9d565b91905055507fa328081b89fa2a8c125b882f505f0a9ef17623cd428d7de77f609076d85d25e08360405161074791906122db565b60405180910390a1505050565b600754811115610799576040517f08c379a000000000000000000000000000000000000000000000000000000000815260040161079090612d31565b60405180910390fd5b60011515600082815481106107b1576107b0612d51565b5b906000526020600020906005020160030160009054906101000a900460ff16151514610812576040517f08c379a000000000000000000000000000000000000000000000000000000000815260040161080990612dcc565b60405180910390fd5b3373ffffffffffffffffffffffffffffffffffffffff166000828154811061083d5761083c612d51565b5b906000526020600020906005020160010160009054906101000a900473ffffffffffffffffffffffffffffffffffffffff1673ffffffffffffffffffffffffffffffffffffffff16146108c5576040517f08c379a00000000000000000000000000000000000000000000000000000000081526004016108bc90612e38565b60405180910390fd5b600160006002600084815260200190815260200160002060009054906101000a900473ffffffffffffffffffffffffffffffffffffffff1673ffffffffffffffffffffffffffffffffffffffff1673ffffffffffffffffffffffffffffffffffffffff168152602001908152602001600020600081548092919061094890612e58565b9190505550600080828154811061096257610961612d51565b5b906000526020600020906005020160030160006101000a81548160ff0219169083151502179055507fdb43aa42235c8d63908794a952603e8d43a549383d13123c3d893a3fc2e62495816040516109b99190612520565b60405180910390a150565b60026020528060005260406000206000915054906101000a900473ffffffffffffffffffffffffffffffffffffffff1681565b8273ffffffffffffffffffffffffffffffffffffffff163373ffffffffffffffffffffffffffffffffffffffff1614610a65576040517f08c379a0000000000000000000000000000000000000000000000000000000008152600401610a5c90612ecd565b60405180910390fd5b81600360008573ffffffffffffffffffffffffffffffffffffffff1673ffffffffffffffffffffffffffffffffffffffff1681526020019081526020016000206000019080519060200190610abb929190611eaf565b5080600360008573ffffffffffffffffffffffffffffffffffffffff1673ffffffffffffffffffffffffffffffffffffffff1681526020019081526020016000206001019080519060200190610b12929190611eaf565b507fd456720fd185d4060f5cea4d82775d2af95048c1e10f227ec35bae950a4be2a883604051610b4291906122db565b60405180910390a1505050565b610b57611f35565b600460008473ffffffffffffffffffffffffffffffffffffffff1673ffffffffffffffffffffffffffffffffffffffff16815260200190815260200160002060008373ffffffffffffffffffffffffffffffffffffffff1673ffffffffffffffffffffffffffffffffffffffff168152602001908152602001600020604051806080016040529081600082018054610bee90612a63565b80601f0160208091040260200160405190810160405280929190818152602001828054610c1a90612a63565b8015610c675780601f10610c3c57610100808354040283529160200191610c67565b820191906000526020600020905b815481529060010190602001808311610c4a57829003601f168201915b50505050508152602001600182018054610c8090612a63565b80601f0160208091040260200160405190810160405280929190818152602001828054610cac90612a63565b8015610cf95780601f10610cce57610100808354040283529160200191610cf9565b820191906000526020600020905b815481529060010190602001808311610cdc57829003601f168201915b5050505050815260200160028201548152602001600382015481525050905092915050565b60016020528060005260406000206000915090505481565b60606000600160008473ffffffffffffffffffffffffffffffffffffffff1673ffffffffffffffffffffffffffffffffffffffff1681526020019081526020016000205467ffffffffffffffff811115610d9357610d926120cf565b5b604051908082528060200260200182016040528015610dcc57816020015b610db9611f5d565b815260200190600190039081610db15790505b5090506000805b600080549050811015611028578473ffffffffffffffffffffffffffffffffffffffff166002600083815260200190815260200160002060009054906101000a900473ffffffffffffffffffffffffffffffffffffffff1673ffffffffffffffffffffffffffffffffffffffff16148015610e8457506001151560008281548110610e6157610e60612d51565b5b906000526020600020906005020160030160009054906101000a900460ff161515145b156110155760008181548110610e9d57610e9c612d51565b5b90600052602060002090600502016040518060c0016040529081600082015481526020016001820160009054906101000a900473ffffffffffffffffffffffffffffffffffffffff1673ffffffffffffffffffffffffffffffffffffffff1673ffffffffffffffffffffffffffffffffffffffff1681526020016001820160149054906101000a900460ff16151515158152602001600282018054610f4190612a63565b80601f0160208091040260200160405190810160405280929190818152602001828054610f6d90612a63565b8015610fba5780601f10610f8f57610100808354040283529160200191610fba565b820191906000526020600020905b815481529060010190602001808311610f9d57829003601f168201915b505050505081526020016003820160009054906101000a900460ff16151515158152602001600482015481525050838381518110610ffb57610ffa612d51565b5b6020026020010181905250818061101190612c9d565b9250505b808061102090612c9d565b915050610dd3565b508192505050919050565b61103b611f35565b600360008373ffffffffffffffffffffffffffffffffffffffff1673ffffffffffffffffffffffffffffffffffffffff16815260200190815260200160002060405180608001604052908160008201805461109590612a63565b80601f01602080910402602001604051908101604052809291908181526020018280546110c190612a63565b801561110e5780601f106110e35761010080835404028352916020019161110e565b820191906000526020600020905b8154815290600101906020018083116110f157829003601f168201915b5050505050815260200160018201805461112790612a63565b80601f016020809104026020016040519081016040528092919081815260200182805461115390612a63565b80156111a05780601f10611175576101008083540402835291602001916111a0565b820191906000526020600020905b81548152906001019060200180831161118357829003601f168201915b50505050508152602001600282015481526020016003820154815250509050919050565b6111cc611f5d565b600082815481106111e0576111df612d51565b5b90600052602060002090600502016040518060c0016040529081600082015481526020016001820160009054906101000a900473ffffffffffffffffffffffffffffffffffffffff1673ffffffffffffffffffffffffffffffffffffffff1673ffffffffffffffffffffffffffffffffffffffff1681526020016001820160149054906101000a900460ff1615151515815260200160028201805461128490612a63565b80601f01602080910402602001604051908101604052809291908181526020018280546112b090612a63565b80156112fd5780601f106112d2576101008083540402835291602001916112fd565b820191906000526020600020905b8154815290600101906020018083116112e057829003601f168201915b505050505081526020016003820160009054906101000a900460ff161515151581526020016004820154815250509050919050565b600080600090505b6000805490508110156113ca578273ffffffffffffffffffffffffffffffffffffffff166002600083815260200190815260200160002060009054906101000a900473ffffffffffffffffffffffffffffffffffffffff1673ffffffffffffffffffffffffffffffffffffffff16036113b75760019150506113d0565b80806113c290612c9d565b91505061133a565b50600090505b919050565b8073ffffffffffffffffffffffffffffffffffffffff163373ffffffffffffffffffffffffffffffffffffffff1614611443576040517f08c379a000000000000000000000000000000000000000000000000000000000815260040161143a90612f5f565b60405180910390fd5b60005b600080549050811015611597578173ffffffffffffffffffffffffffffffffffffffff166002600083815260200190815260200160002060009054906101000a900473ffffffffffffffffffffffffffffffffffffffff1673ffffffffffffffffffffffffffffffffffffffff160361158457600081815481106114cd576114cc612d51565b5b90600052602060002090600502016000808201600090556001820160006101000a81549073ffffffffffffffffffffffffffffffffffffffff02191690556001820160146101000a81549060ff021916905560028201600061152f9190611fad565b6003820160006101000a81549060ff0219169055600482016000905550506002600082815260200190815260200160002060006101000a81549073ffffffffffffffffffffffffffffffffffffffff02191690555b808061158f90612c9d565b915050611446565b50600360008273ffffffffffffffffffffffffffffffffffffffff1673ffffffffffffffffffffffffffffffffffffffff168152602001908152602001600020600080820160006115e89190611fad565b6001820160006115f89190611fad565b600282016000905560038201600090555050600160008273ffffffffffffffffffffffffffffffffffffffff1673ffffffffffffffffffffffffffffffffffffffff168152602001908152602001600020600090557fe22de1457cb61fb61b60176bc4235a9abd19466126b46692bc14fc573f0992498160405161167c91906122db565b60405180910390a150565b6060600560008373ffffffffffffffffffffffffffffffffffffffff1673ffffffffffffffffffffffffffffffffffffffff16815260200190815260200160002080548060200260200160405190810160405280929190818152602001828054801561174857602002820191906000526020600020905b8160009054906101000a900473ffffffffffffffffffffffffffffffffffffffff1673ffffffffffffffffffffffffffffffffffffffff16815260200190600101908083116116fe575b50505050509050919050565b600654600360008573ffffffffffffffffffffffffffffffffffffffff1673ffffffffffffffffffffffffffffffffffffffff1681526020019081526020016000206000016040516117a69190612b33565b6040518091039020146117ee576040517f08c379a00000000000000000000000000000000000000000000000000000000081526004016117e590612fcb565b60405180910390fd5b60405180608001604052808381526020018281526020016000815260200142815250600360008573ffffffffffffffffffffffffffffffffffffffff1673ffffffffffffffffffffffffffffffffffffffff168152602001908152602001600020600082015181600001908051906020019061186b929190611eaf565b506020820151816001019080519060200190611888929190611eaf565b5060408201518160020155606082015181600301559050507f3c3284d117c92d0b1699230960384e794dcba184cc48ff114fe4fed20c9b0565836040516118cf91906122db565b60405180910390a1505050565b600081815481106118ec57600080fd5b90600052602060002090600502016000915090508060000154908060010160009054906101000a900473ffffffffffffffffffffffffffffffffffffffff16908060010160149054906101000a900460ff169080600201805461194e90612a63565b80601f016020809104026020016040519081016040528092919081815260200182805461197a90612a63565b80156119c75780601f1061199c576101008083540402835291602001916119c7565b820191906000526020600020905b8154815290600101906020018083116119aa57829003601f168201915b5050505050908060030160009054906101000a900460ff16908060040154905086565b600654600360008473ffffffffffffffffffffffffffffffffffffffff1673ffffffffffffffffffffffffffffffffffffffff168152602001908152602001600020600001604051611a3c9190612b33565b604051809103902003611a84576040517f08c379a0000000000000000000000000000000000000000000000000000000008152600401611a7b9061305d565b60405180910390fd5b80600460003373ffffffffffffffffffffffffffffffffffffffff1673ffffffffffffffffffffffffffffffffffffffff16815260200190815260200160002060008473ffffffffffffffffffffffffffffffffffffffff1673ffffffffffffffffffffffffffffffffffffffff1681526020019081526020016000206000820151816000019080519060200190611b1d929190611eaf565b506020820151816001019080519060200190611b3a929190611eaf565b506040820151816002015560608201518160030155905050600560008373ffffffffffffffffffffffffffffffffffffffff1673ffffffffffffffffffffffffffffffffffffffff168152602001908152602001600020339080600181540180825580915050600190039060005260206000200160009091909190916101000a81548173ffffffffffffffffffffffffffffffffffffffff021916908373ffffffffffffffffffffffffffffffffffffffff1602179055507fa23ac7e4240980962523625b2d1d3aa221354fcc90b374cf0e21685c94288d3e3383604051611c2392919061307d565b60405180910390a15050565b6000600654600360008473ffffffffffffffffffffffffffffffffffffffff1673ffffffffffffffffffffffffffffffffffffffff168152602001908152602001600020600001604051611c839190612b33565b604051809103902003611c995760009050611c9e565b600190505b919050565b8073ffffffffffffffffffffffffffffffffffffffff163373ffffffffffffffffffffffffffffffffffffffff1614611d11576040517f08c379a0000000000000000000000000000000000000000000000000000000008152600401611d0890613118565b60405180910390fd5b600460008373ffffffffffffffffffffffffffffffffffffffff1673ffffffffffffffffffffffffffffffffffffffff16815260200190815260200160002060003373ffffffffffffffffffffffffffffffffffffffff1673ffffffffffffffffffffffffffffffffffffffff16815260200190815260200160002060008082016000611d9e9190611fad565b600182016000611dae9190611fad565b6002820160009055600382016000905550507fbecbd0337c25e4ba3474143b6f75afd8775e682adad51f00d8f5b0740406fd338282604051611df192919061307d565b60405180910390a15050565b6000600654600460008573ffffffffffffffffffffffffffffffffffffffff1673ffffffffffffffffffffffffffffffffffffffff16815260200190815260200160002060008473ffffffffffffffffffffffffffffffffffffffff1673ffffffffffffffffffffffffffffffffffffffff168152602001908152602001600020600001604051611e8e9190612b33565b604051809103902003611ea45760009050611ea9565b600190505b92915050565b828054611ebb90612a63565b90600052602060002090601f016020900481019282611edd5760008555611f24565b82601f10611ef657805160ff1916838001178555611f24565b82800160010185558215611f24579182015b82811115611f23578251825591602001919060010190611f08565b5b509050611f319190611fed565b5090565b6040518060800160405280606081526020016060815260200160008152602001600081525090565b6040518060c0016040528060008152602001600073ffffffffffffffffffffffffffffffffffffffff16815260200160001515815260200160608152602001600015158152602001600081525090565b508054611fb990612a63565b6000825580601f10611fcb5750611fea565b601f016020900490600052602060002090810190611fe99190611fed565b5b50565b5b80821115612006576000816000905550600101611fee565b5090565b6000604051905090565b600080fd5b600080fd5b600073ffffffffffffffffffffffffffffffffffffffff82169050919050565b60006120498261201e565b9050919050565b6120598161203e565b811461206457600080fd5b50565b60008135905061207681612050565b92915050565b60008115159050919050565b6120918161207c565b811461209c57600080fd5b50565b6000813590506120ae81612088565b92915050565b600080fd5b600080fd5b6000601f19601f8301169050919050565b7f4e487b7100000000000000000000000000000000000000000000000000000000600052604160045260246000fd5b612107826120be565b810181811067ffffffffffffffff82111715612126576121256120cf565b5b80604052505050565b600061213961200a565b905061214582826120fe565b919050565b600067ffffffffffffffff821115612165576121646120cf565b5b61216e826120be565b9050602081019050919050565b82818337600083830152505050565b600061219d6121988461214a565b61212f565b9050828152602081018484840111156121b9576121b86120b9565b5b6121c484828561217b565b509392505050565b600082601f8301126121e1576121e06120b4565b5b81356121f184826020860161218a565b91505092915050565b60008060006060848603121561221357612212612014565b5b600061222186828701612067565b93505060206122328682870161209f565b925050604084013567ffffffffffffffff81111561225357612252612019565b5b61225f868287016121cc565b9150509250925092565b6000819050919050565b61227c81612269565b811461228757600080fd5b50565b60008135905061229981612273565b92915050565b6000602082840312156122b5576122b4612014565b5b60006122c38482850161228a565b91505092915050565b6122d58161203e565b82525050565b60006020820190506122f060008301846122cc565b92915050565b60008060006060848603121561230f5761230e612014565b5b600061231d86828701612067565b935050602084013567ffffffffffffffff81111561233e5761233d612019565b5b61234a868287016121cc565b925050604084013567ffffffffffffffff81111561236b5761236a612019565b5b612377868287016121cc565b9150509250925092565b6000806040838503121561239857612397612014565b5b60006123a685828601612067565b92505060206123b785828601612067565b9150509250929050565b600081519050919050565b600082825260208201905092915050565b60005b838110156123fb5780820151818401526020810190506123e0565b8381111561240a576000848401525b50505050565b600061241b826123c1565b61242581856123cc565b93506124358185602086016123dd565b61243e816120be565b840191505092915050565b61245281612269565b82525050565b600060808301600083015184820360008601526124758282612410565b9150506020830151848203602086015261248f8282612410565b91505060408301516124a46040860182612449565b5060608301516124b76060860182612449565b508091505092915050565b600060208201905081810360008301526124dc8184612458565b905092915050565b6000602082840312156124fa576124f9612014565b5b600061250884828501612067565b91505092915050565b61251a81612269565b82525050565b60006020820190506125356000830184612511565b92915050565b600081519050919050565b600082825260208201905092915050565b6000819050602082019050919050565b6125708161203e565b82525050565b61257f8161207c565b82525050565b600060c08301600083015161259d6000860182612449565b5060208301516125b06020860182612567565b5060408301516125c36040860182612576565b50606083015184820360608601526125db8282612410565b91505060808301516125f06080860182612576565b5060a083015161260360a0860182612449565b508091505092915050565b600061261a8383612585565b905092915050565b6000602082019050919050565b600061263a8261253b565b6126448185612546565b93508360208202850161265685612557565b8060005b858110156126925784840389528151612673858261260e565b945061267e83612622565b925060208a0199505060018101905061265a565b50829750879550505050505092915050565b600060208201905081810360008301526126be818461262f565b905092915050565b600060c0830160008301516126de6000860182612449565b5060208301516126f16020860182612567565b5060408301516127046040860182612576565b506060830151848203606086015261271c8282612410565b91505060808301516127316080860182612576565b5060a083015161274460a0860182612449565b508091505092915050565b6000602082019050818103600083015261276981846126c6565b905092915050565b61277a8161207c565b82525050565b60006020820190506127956000830184612771565b92915050565b600081519050919050565b600082825260208201905092915050565b6000819050602082019050919050565b60006127d38383612567565b60208301905092915050565b6000602082019050919050565b60006127f78261279b565b61280181856127a6565b935061280c836127b7565b8060005b8381101561283d57815161282488826127c7565b975061282f836127df565b925050600181019050612810565b5085935050505092915050565b6000602082019050818103600083015261286481846127ec565b905092915050565b600082825260208201905092915050565b6000612888826123c1565b612892818561286c565b93506128a28185602086016123dd565b6128ab816120be565b840191505092915050565b600060c0820190506128cb6000830189612511565b6128d860208301886122cc565b6128e56040830187612771565b81810360608301526128f7818661287d565b90506129066080830185612771565b61291360a0830184612511565b979650505050505050565b600080fd5b600080fd5b60006080828403121561293e5761293d61291e565b5b612948608061212f565b9050600082013567ffffffffffffffff81111561296857612967612923565b5b612974848285016121cc565b600083015250602082013567ffffffffffffffff81111561299857612997612923565b5b6129a4848285016121cc565b60208301525060406129b88482850161228a565b60408301525060606129cc8482850161228a565b60608301525092915050565b600080604083850312156129ef576129ee612014565b5b60006129fd85828601612067565b925050602083013567ffffffffffffffff811115612a1e57612a1d612019565b5b612a2a85828601612928565b9150509250929050565b7f4e487b7100000000000000000000000000000000000000000000000000000000600052602260045260246000fd5b60006002820490506001821680612a7b57607f821691505b602082108103612a8e57612a8d612a34565b5b50919050565b600081905092915050565b60008190508160005260206000209050919050565b60008154612ac181612a63565b612acb8186612a94565b94506001821660008114612ae65760018114612af757612b2a565b60ff19831686528186019350612b2a565b612b0085612a9f565b60005b83811015612b2257815481890152600182019150602081019050612b03565b838801955050505b50505092915050565b6000612b3f8284612ab4565b915081905092915050565b7f43616e6e6f742073656e642053425420746f20536f756c20746861742068617360008201527f206e6f74206265656e206d696e74656400000000000000000000000000000000602082015250565b6000612ba660308361286c565b9150612bb182612b4a565b604082019050919050565b60006020820190508181036000830152612bd581612b99565b9050919050565b7f41747465737465722068617320746f2068617665206120536f756c207468656d60008201527f73656c7665730000000000000000000000000000000000000000000000000000602082015250565b6000612c3860268361286c565b9150612c4382612bdc565b604082019050919050565b60006020820190508181036000830152612c6781612c2b565b9050919050565b7f4e487b7100000000000000000000000000000000000000000000000000000000600052601160045260246000fd5b6000612ca882612269565b91507fffffffffffffffffffffffffffffffffffffffffffffffffffffffffffffffff8203612cda57612cd9612c6e565b5b600182019050919050565b7f456e746572656420546f6b656e496420646f6573206e6f742065786973740000600082015250565b6000612d1b601e8361286c565b9150612d2682612ce5565b602082019050919050565b60006020820190508181036000830152612d4a81612d0e565b9050919050565b7f4e487b7100000000000000000000000000000000000000000000000000000000600052603260045260246000fd5b7f5342542068617320616c7265616479206265656e207265766f6b656400000000600082015250565b6000612db6601c8361286c565b9150612dc182612d80565b602082019050919050565b60006020820190508181036000830152612de581612da9565b9050919050565b7f4f6e6c79206174746573746572206d6179207265766f6b6520546f6b656e0000600082015250565b6000612e22601e8361286c565b9150612e2d82612dec565b602082019050919050565b60006020820190508181036000830152612e5181612e15565b9050919050565b6000612e6382612269565b915060008203612e7657612e75612c6e565b5b600182039050919050565b7f4f6e6c792075736572732063616e2075706461746520736f756c206461746100600082015250565b6000612eb7601f8361286c565b9150612ec282612e81565b602082019050919050565b60006020820190508181036000830152612ee681612eaa565b9050919050565b7f4f6e6c7920536f756c204f776e657220686176652072696768747320746f206460008201527f656c657465207468656972206461746100000000000000000000000000000000602082015250565b6000612f4960308361286c565b9150612f5482612eed565b604082019050919050565b60006020820190508181036000830152612f7881612f3c565b9050919050565b7f536f756c20616c72656164792065786973747300000000000000000000000000600082015250565b6000612fb560138361286c565b9150612fc082612f7f565b602082019050919050565b60006020820190508181036000830152612fe481612fa8565b9050919050565b7f43616e6e6f742063726561746520612070726f66696c6520666f72206120736f60008201527f756c207468617420686173206e6f74206265656e206d696e7465640000000000602082015250565b6000613047603b8361286c565b915061305282612feb565b604082019050919050565b600060208201905081810360008301526130768161303a565b9050919050565b600060408201905061309260008301856122cc565b61309f60208301846122cc565b9392505050565b7f4f6e6c7920757365727320686176652072696768747320746f2064656c65746560008201527f2074686569722070726f66696c65206461746100000000000000000000000000602082015250565b600061310260338361286c565b915061310d826130a6565b604082019050919050565b60006020820190508181036000830152613131816130f5565b905091905056fea264697066735822122090a215f52a949585d2b8b745a728a09ff7c70cd3924b08ea19c00cb62349e07a64736f6c634300080d0033",
  "linkReferences": {},
  "deployedLinkReferences": {}
}