{
  "_format": "hh-sol-artifact-1",
  "contractName": "SBT",
  "sourceName": "contracts/SBT.sol",
  "abi": [
    {
      "anonymous": false,
      "inputs": [
        {
          "indexed": false,
          "internalType": "address",
          "name": "_soul",
          "type": "address"
        }
      ],
      "name": "Attest",
      "type": "event"
    },
    {
      "anonymous": false,
      "inputs": [
        {
          "indexed": false,
          "internalType": "address",
          "name": "_soul",
          "type": "address"
        }
      ],
      "name": "Burn",
      "type": "event"
    },
    {
      "anonymous": false,
      "inputs": [
        {
          "indexed": false,
          "internalType": "address",
          "name": "_soul",
          "type": "address"
        }
      ],
      "name": "Mint",
      "type": "event"
    },
    {
      "anonymous": false,
      "inputs": [
        {
          "indexed": false,
          "internalType": "address",
          "name": "_profiler",
          "type": "address"
        },
        {
          "indexed": false,
          "internalType": "address",
          "name": "_soul",
          "type": "address"
        }
      ],
      "name": "RemoveProfile",
      "type": "event"
    },
    {
      "anonymous": false,
      "inputs": [
        {
          "indexed": false,
          "internalType": "uint256",
          "name": "_tokenId",
          "type": "uint256"
        }
      ],
      "name": "Revoke",
      "type": "event"
    },
    {
      "anonymous": false,
      "inputs": [
        {
          "indexed": false,
          "internalType": "address",
          "name": "_profiler",
          "type": "address"
        },
        {
          "indexed": false,
          "internalType": "address",
          "name": "_soul",
          "type": "address"
        }
      ],
      "name": "SetProfile",
      "type": "event"
    },
    {
      "anonymous": false,
      "inputs": [
        {
          "indexed": false,
          "internalType": "address",
          "name": "_soul",
          "type": "address"
        }
      ],
      "name": "Update",
      "type": "event"
    },
    {
      "inputs": [
        {
          "internalType": "uint256",
          "name": "",
          "type": "uint256"
        }
      ],
      "name": "SbtToSoul",
      "outputs": [
        {
          "internalType": "address",
          "name": "",
          "type": "address"
        }
      ],
      "stateMutability": "view",
      "type": "function"
    },
    {
      "inputs": [
        {
          "internalType": "address",
          "name": "_targetSoul",
          "type": "address"
        },
        {
          "internalType": "bool",
          "name": "_reputation",
          "type": "bool"
        },
        {
          "internalType": "string",
          "name": "_explanation_url",
          "type": "string"
        }
      ],
      "name": "attest",
      "outputs": [],
      "stateMutability": "nonpayable",
      "type": "function"
    },
    {
      "inputs": [
        {
          "internalType": "address",
          "name": "_soul",
          "type": "address"
        }
      ],
      "name": "burn",
      "outputs": [],
      "stateMutability": "nonpayable",
      "type": "function"
    },
    {
      "inputs": [
        {
          "internalType": "uint256",
          "name": "_sbt",
          "type": "uint256"
        }
      ],
      "name": "getSbt",
      "outputs": [
        {
          "components": [
            {
              "internalType": "uint256",
              "name": "tokenId",
              "type": "uint256"
            },
            {
              "internalType": "address",
              "name": "attester",
              "type": "address"
            },
            {
              "internalType": "bool",
              "name": "reputation",
              "type": "bool"
            },
            {
              "internalType": "string",
              "name": "explanation_url",
              "type": "string"
            },
            {
              "internalType": "bool",
              "name": "active",
              "type": "bool"
            },
            {
              "internalType": "uint256",
              "name": "timestamp",
              "type": "uint256"
            }
          ],
          "internalType": "struct SBT.Sbt",
          "name": "",
          "type": "tuple"
        }
      ],
      "stateMutability": "view",
      "type": "function"
    },
    {
      "inputs": [
        {
          "internalType": "address",
          "name": "_soul",
          "type": "address"
        }
      ],
      "name": "getSbtsBySoul",
      "outputs": [
        {
          "components": [
            {
              "internalType": "uint256",
              "name": "tokenId",
              "type": "uint256"
            },
            {
              "internalType": "address",
              "name": "attester",
              "type": "address"
            },
            {
              "internalType": "bool",
              "name": "reputation",
              "type": "bool"
            },
            {
              "internalType": "string",
              "name": "explanation_url",
              "type": "string"
            },
            {
              "internalType": "bool",
              "name": "active",
              "type": "bool"
            },
            {
              "internalType": "uint256",
              "name": "timestamp",
              "type": "uint256"
            }
          ],
          "internalType": "struct SBT.Sbt[]",
          "name": "",
          "type": "tuple[]"
        }
      ],
      "stateMutability": "view",
      "type": "function"
    },
    {
      "inputs": [
        {
          "internalType": "address",
          "name": "_soul",
          "type": "address"
        }
      ],
      "name": "getSoul",
      "outputs": [
        {
          "components": [
            {
              "internalType": "string",
              "name": "identity",
              "type": "string"
            },
            {
              "internalType": "string",
              "name": "url",
              "type": "string"
            },
            {
              "internalType": "uint256",
              "name": "score",
              "type": "uint256"
            },
            {
              "internalType": "uint256",
              "name": "timestamp",
              "type": "uint256"
            }
          ],
          "internalType": "struct SBT.Soul",
          "name": "",
          "type": "tuple"
        }
      ],
      "stateMutability": "view",
      "type": "function"
    },
    {
      "inputs": [
        {
          "internalType": "address",
          "name": "_soul",
          "type": "address"
        }
      ],
      "name": "hasSbt",
      "outputs": [
        {
          "internalType": "bool",
          "name": "",
          "type": "bool"
        }
      ],
      "stateMutability": "view",
      "type": "function"
    },
    {
      "inputs": [
        {
          "internalType": "address",
          "name": "_soul",
          "type": "address"
        }
      ],
      "name": "hasSoul",
      "outputs": [
        {
          "internalType": "bool",
          "name": "",
          "type": "bool"
        }
      ],
      "stateMutability": "view",
      "type": "function"
    },
    {
      "inputs": [
        {
          "internalType": "address",
          "name": "_soul",
          "type": "address"
        },
        {
          "components": [
            {
              "internalType": "string",
              "name": "identity",
              "type": "string"
            },
            {
              "internalType": "string",
              "name": "url",
              "type": "string"
            },
            {
              "internalType": "uint256",
              "name": "score",
              "type": "uint256"
            },
            {
              "internalType": "uint256",
              "name": "timestamp",
              "type": "uint256"
            }
          ],
          "internalType": "struct SBT.Soul",
          "name": "_soulData",
          "type": "tuple"
        }
      ],
      "name": "mint",
      "outputs": [],
      "stateMutability": "nonpayable",
      "type": "function"
    },
    {
      "inputs": [
        {
          "internalType": "uint256",
          "name": "_tokenId",
          "type": "uint256"
        }
      ],
      "name": "revoke",
      "outputs": [],
      "stateMutability": "nonpayable",
      "type": "function"
    },
    {
      "inputs": [
        {
          "internalType": "uint256",
          "name": "",
          "type": "uint256"
        }
      ],
      "name": "sbts",
      "outputs": [
        {
          "internalType": "uint256",
          "name": "tokenId",
          "type": "uint256"
        },
        {
          "internalType": "address",
          "name": "attester",
          "type": "address"
        },
        {
          "internalType": "bool",
          "name": "reputation",
          "type": "bool"
        },
        {
          "internalType": "string",
          "name": "explanation_url",
          "type": "string"
        },
        {
          "internalType": "bool",
          "name": "active",
          "type": "bool"
        },
        {
          "internalType": "uint256",
          "name": "timestamp",
          "type": "uint256"
        }
      ],
      "stateMutability": "view",
      "type": "function"
    },
    {
      "inputs": [
        {
          "internalType": "address",
          "name": "",
          "type": "address"
        }
      ],
      "name": "soulSbtCount",
      "outputs": [
        {
          "internalType": "uint256",
          "name": "",
          "type": "uint256"
        }
      ],
      "stateMutability": "view",
      "type": "function"
    },
    {
      "inputs": [
        {
          "internalType": "address",
          "name": "_soul",
          "type": "address"
        },
        {
          "components": [
            {
              "internalType": "string",
              "name": "identity",
              "type": "string"
            },
            {
              "internalType": "string",
              "name": "url",
              "type": "string"
            },
            {
              "internalType": "uint256",
              "name": "score",
              "type": "uint256"
            },
            {
              "internalType": "uint256",
              "name": "timestamp",
              "type": "uint256"
            }
          ],
          "internalType": "struct SBT.Soul",
          "name": "_soulData",
          "type": "tuple"
        }
      ],
      "name": "update",
      "outputs": [],
      "stateMutability": "nonpayable",
      "type": "function"
    }
  ],
  "bytecode": "0x60806040527fc5d2460186f7233c927e7db2dcc703c0e500b653ca82273b7bfad8045d85a47060001b600655600060075534801561003c57600080fd5b506126498061004c6000396000f3fe608060405234801561001057600080fd5b50600436106100cf5760003560e01c806366cfe97f1161008c57806389afcb441161006657806389afcb4414610248578063b900825114610264578063bdd7520214610299578063dce4aa1b146102c9576100cf565b806366cfe97f146101b857806371dec1d6146101e857806387b605a514610218576100cf565b80630c168bf7146100d457806320a2d60b146100f057806320c5429b1461010c578063251d315714610128578063352451c114610158578063375577b414610188575b600080fd5b6100ee60048036038101906100e991906119be565b6102e5565b005b61010a60048036038101906101059190611b1d565b610645565b005b61012660048036038101906101219190611b79565b6107ab565b005b610142600480360381019061013d9190611b79565b610a1b565b60405161014f9190611bb5565b60405180910390f35b610172600480360381019061016d9190611bd0565b610a4e565b60405161017f9190611c0c565b60405180910390f35b6101a2600480360381019061019d9190611bd0565b610a66565b6040516101af9190611e27565b60405180910390f35b6101d260048036038101906101cd9190611bd0565b610d63565b6040516101df9190611eb3565b60405180910390f35b61020260048036038101906101fd9190611b79565b610ef4565b60405161020f9190611f5e565b60405180910390f35b610232600480360381019061022d9190611bd0565b611062565b60405161023f9190611f8f565b60405180910390f35b610262600480360381019061025d9190611bd0565b611105565b005b61027e60048036038101906102799190611b79565b6113b7565b60405161029096959493929190611ff4565b60405180910390f35b6102b360048036038101906102ae9190611bd0565b6114c5565b6040516102c09190611f8f565b60405180910390f35b6102e360048036038101906102de9190611b1d565b611539565b005b600654600360008573ffffffffffffffffffffffffffffffffffffffff1673ffffffffffffffffffffffffffffffffffffffff168152602001908152602001600020600001604051610337919061215b565b60405180910390200361037f576040517f08c379a0000000000000000000000000000000000000000000000000000000008152600401610376906121e4565b60405180910390fd5b600654600360003373ffffffffffffffffffffffffffffffffffffffff1673ffffffffffffffffffffffffffffffffffffffff1681526020019081526020016000206000016040516103d1919061215b565b604051809103902003610419576040517f08c379a000000000000000000000000000000000000000000000000000000000815260040161041090612276565b60405180910390fd5b60006040518060c0016040528060075481526020013373ffffffffffffffffffffffffffffffffffffffff16815260200184151581526020018381526020016001151581526020014281525090806001815401808255809150506001900390600052602060002090600502016000909190919091506000820151816000015560208201518160010160006101000a81548173ffffffffffffffffffffffffffffffffffffffff021916908373ffffffffffffffffffffffffffffffffffffffff16021790555060408201518160010160146101000a81548160ff021916908315150217905550606082015181600201908051906020019061051b929190611673565b5060808201518160030160006101000a81548160ff02191690831515021790555060a0820151816004015550508260026000600754815260200190815260200160002060006101000a81548173ffffffffffffffffffffffffffffffffffffffff021916908373ffffffffffffffffffffffffffffffffffffffff160217905550600160008473ffffffffffffffffffffffffffffffffffffffff1673ffffffffffffffffffffffffffffffffffffffff16815260200190815260200160002060008154809291906105ec906122c5565b919050555060076000815480929190610604906122c5565b91905055507fa328081b89fa2a8c125b882f505f0a9ef17623cd428d7de77f609076d85d25e0836040516106389190611bb5565b60405180910390a1505050565b600654600360008473ffffffffffffffffffffffffffffffffffffffff1673ffffffffffffffffffffffffffffffffffffffff168152602001908152602001600020600001604051610697919061215b565b6040518091039020146106df576040517f08c379a00000000000000000000000000000000000000000000000000000000081526004016106d690612359565b60405180910390fd5b80600360008473ffffffffffffffffffffffffffffffffffffffff1673ffffffffffffffffffffffffffffffffffffffff168152602001908152602001600020600082015181600001908051906020019061073b929190611673565b506020820151816001019080519060200190610758929190611673565b5060408201518160020155606082015181600301559050507f3c3284d117c92d0b1699230960384e794dcba184cc48ff114fe4fed20c9b05658260405161079f9190611bb5565b60405180910390a15050565b6007548111156107f0576040517f08c379a00000000000000000000000000000000000000000000000000000000081526004016107e7906123c5565b60405180910390fd5b6001151560008281548110610808576108076123e5565b5b906000526020600020906005020160030160009054906101000a900460ff16151514610869576040517f08c379a000000000000000000000000000000000000000000000000000000000815260040161086090612460565b60405180910390fd5b3373ffffffffffffffffffffffffffffffffffffffff1660008281548110610894576108936123e5565b5b906000526020600020906005020160010160009054906101000a900473ffffffffffffffffffffffffffffffffffffffff1673ffffffffffffffffffffffffffffffffffffffff161461091c576040517f08c379a0000000000000000000000000000000000000000000000000000000008152600401610913906124cc565b60405180910390fd5b600160006002600084815260200190815260200160002060009054906101000a900473ffffffffffffffffffffffffffffffffffffffff1673ffffffffffffffffffffffffffffffffffffffff1673ffffffffffffffffffffffffffffffffffffffff168152602001908152602001600020600081548092919061099f906124ec565b919050555060008082815481106109b9576109b86123e5565b5b906000526020600020906005020160030160006101000a81548160ff0219169083151502179055507fdb43aa42235c8d63908794a952603e8d43a549383d13123c3d893a3fc2e6249581604051610a109190611c0c565b60405180910390a150565b60026020528060005260406000206000915054906101000a900473ffffffffffffffffffffffffffffffffffffffff1681565b60016020528060005260406000206000915090505481565b60606000600160008473ffffffffffffffffffffffffffffffffffffffff1673ffffffffffffffffffffffffffffffffffffffff1681526020019081526020016000205467ffffffffffffffff811115610ac357610ac2611893565b5b604051908082528060200260200182016040528015610afc57816020015b610ae96116f9565b815260200190600190039081610ae15790505b5090506000805b600080549050811015610d58578473ffffffffffffffffffffffffffffffffffffffff166002600083815260200190815260200160002060009054906101000a900473ffffffffffffffffffffffffffffffffffffffff1673ffffffffffffffffffffffffffffffffffffffff16148015610bb457506001151560008281548110610b9157610b906123e5565b5b906000526020600020906005020160030160009054906101000a900460ff161515145b15610d455760008181548110610bcd57610bcc6123e5565b5b90600052602060002090600502016040518060c0016040529081600082015481526020016001820160009054906101000a900473ffffffffffffffffffffffffffffffffffffffff1673ffffffffffffffffffffffffffffffffffffffff1673ffffffffffffffffffffffffffffffffffffffff1681526020016001820160149054906101000a900460ff16151515158152602001600282018054610c719061208b565b80601f0160208091040260200160405190810160405280929190818152602001828054610c9d9061208b565b8015610cea5780601f10610cbf57610100808354040283529160200191610cea565b820191906000526020600020905b815481529060010190602001808311610ccd57829003601f168201915b505050505081526020016003820160009054906101000a900460ff16151515158152602001600482015481525050838381518110610d2b57610d2a6123e5565b5b60200260200101819052508180610d41906122c5565b9250505b8080610d50906122c5565b915050610b03565b508192505050919050565b610d6b611749565b600360008373ffffffffffffffffffffffffffffffffffffffff1673ffffffffffffffffffffffffffffffffffffffff168152602001908152602001600020604051806080016040529081600082018054610dc59061208b565b80601f0160208091040260200160405190810160405280929190818152602001828054610df19061208b565b8015610e3e5780601f10610e1357610100808354040283529160200191610e3e565b820191906000526020600020905b815481529060010190602001808311610e2157829003601f168201915b50505050508152602001600182018054610e579061208b565b80601f0160208091040260200160405190810160405280929190818152602001828054610e839061208b565b8015610ed05780601f10610ea557610100808354040283529160200191610ed0565b820191906000526020600020905b815481529060010190602001808311610eb357829003601f168201915b50505050508152602001600282015481526020016003820154815250509050919050565b610efc6116f9565b60008281548110610f1057610f0f6123e5565b5b90600052602060002090600502016040518060c0016040529081600082015481526020016001820160009054906101000a900473ffffffffffffffffffffffffffffffffffffffff1673ffffffffffffffffffffffffffffffffffffffff1673ffffffffffffffffffffffffffffffffffffffff1681526020016001820160149054906101000a900460ff16151515158152602001600282018054610fb49061208b565b80601f0160208091040260200160405190810160405280929190818152602001828054610fe09061208b565b801561102d5780601f106110025761010080835404028352916020019161102d565b820191906000526020600020905b81548152906001019060200180831161101057829003601f168201915b505050505081526020016003820160009054906101000a900460ff161515151581526020016004820154815250509050919050565b600080600090505b6000805490508110156110fa578273ffffffffffffffffffffffffffffffffffffffff166002600083815260200190815260200160002060009054906101000a900473ffffffffffffffffffffffffffffffffffffffff1673ffffffffffffffffffffffffffffffffffffffff16036110e7576001915050611100565b80806110f2906122c5565b91505061106a565b50600090505b919050565b8073ffffffffffffffffffffffffffffffffffffffff163373ffffffffffffffffffffffffffffffffffffffff1614611173576040517f08c379a000000000000000000000000000000000000000000000000000000000815260040161116a90612587565b60405180910390fd5b60005b6000805490508110156112c7578173ffffffffffffffffffffffffffffffffffffffff166002600083815260200190815260200160002060009054906101000a900473ffffffffffffffffffffffffffffffffffffffff1673ffffffffffffffffffffffffffffffffffffffff16036112b457600081815481106111fd576111fc6123e5565b5b90600052602060002090600502016000808201600090556001820160006101000a81549073ffffffffffffffffffffffffffffffffffffffff02191690556001820160146101000a81549060ff021916905560028201600061125f9190611771565b6003820160006101000a81549060ff0219169055600482016000905550506002600082815260200190815260200160002060006101000a81549073ffffffffffffffffffffffffffffffffffffffff02191690555b80806112bf906122c5565b915050611176565b50600360008273ffffffffffffffffffffffffffffffffffffffff1673ffffffffffffffffffffffffffffffffffffffff168152602001908152602001600020600080820160006113189190611771565b6001820160006113289190611771565b600282016000905560038201600090555050600160008273ffffffffffffffffffffffffffffffffffffffff1673ffffffffffffffffffffffffffffffffffffffff168152602001908152602001600020600090557fe22de1457cb61fb61b60176bc4235a9abd19466126b46692bc14fc573f099249816040516113ac9190611bb5565b60405180910390a150565b600081815481106113c757600080fd5b90600052602060002090600502016000915090508060000154908060010160009054906101000a900473ffffffffffffffffffffffffffffffffffffffff16908060010160149054906101000a900460ff16908060020180546114299061208b565b80601f01602080910402602001604051908101604052809291908181526020018280546114559061208b565b80156114a25780601f10611477576101008083540402835291602001916114a2565b820191906000526020600020905b81548152906001019060200180831161148557829003601f168201915b5050505050908060030160009054906101000a900460ff16908060040154905086565b6000600654600360008473ffffffffffffffffffffffffffffffffffffffff1673ffffffffffffffffffffffffffffffffffffffff168152602001908152602001600020600001604051611519919061215b565b60405180910390200361152f5760009050611534565b600190505b919050565b8173ffffffffffffffffffffffffffffffffffffffff163373ffffffffffffffffffffffffffffffffffffffff16146115a7576040517f08c379a000000000000000000000000000000000000000000000000000000000815260040161159e906125f3565b60405180910390fd5b80600360008473ffffffffffffffffffffffffffffffffffffffff1673ffffffffffffffffffffffffffffffffffffffff1681526020019081526020016000206000820151816000019080519060200190611603929190611673565b506020820151816001019080519060200190611620929190611673565b5060408201518160020155606082015181600301559050507fd456720fd185d4060f5cea4d82775d2af95048c1e10f227ec35bae950a4be2a8826040516116679190611bb5565b60405180910390a15050565b82805461167f9061208b565b90600052602060002090601f0160209004810192826116a157600085556116e8565b82601f106116ba57805160ff19168380011785556116e8565b828001600101855582156116e8579182015b828111156116e75782518255916020019190600101906116cc565b5b5090506116f591906117b1565b5090565b6040518060c0016040528060008152602001600073ffffffffffffffffffffffffffffffffffffffff16815260200160001515815260200160608152602001600015158152602001600081525090565b6040518060800160405280606081526020016060815260200160008152602001600081525090565b50805461177d9061208b565b6000825580601f1061178f57506117ae565b601f0160209004906000526020600020908101906117ad91906117b1565b5b50565b5b808211156117ca5760008160009055506001016117b2565b5090565b6000604051905090565b600080fd5b600080fd5b600073ffffffffffffffffffffffffffffffffffffffff82169050919050565b600061180d826117e2565b9050919050565b61181d81611802565b811461182857600080fd5b50565b60008135905061183a81611814565b92915050565b60008115159050919050565b61185581611840565b811461186057600080fd5b50565b6000813590506118728161184c565b92915050565b600080fd5b600080fd5b6000601f19601f8301169050919050565b7f4e487b7100000000000000000000000000000000000000000000000000000000600052604160045260246000fd5b6118cb82611882565b810181811067ffffffffffffffff821117156118ea576118e9611893565b5b80604052505050565b60006118fd6117ce565b905061190982826118c2565b919050565b600067ffffffffffffffff82111561192957611928611893565b5b61193282611882565b9050602081019050919050565b82818337600083830152505050565b600061196161195c8461190e565b6118f3565b90508281526020810184848401111561197d5761197c61187d565b5b61198884828561193f565b509392505050565b600082601f8301126119a5576119a4611878565b5b81356119b584826020860161194e565b91505092915050565b6000806000606084860312156119d7576119d66117d8565b5b60006119e58682870161182b565b93505060206119f686828701611863565b925050604084013567ffffffffffffffff811115611a1757611a166117dd565b5b611a2386828701611990565b9150509250925092565b600080fd5b600080fd5b6000819050919050565b611a4a81611a37565b8114611a5557600080fd5b50565b600081359050611a6781611a41565b92915050565b600060808284031215611a8357611a82611a2d565b5b611a8d60806118f3565b9050600082013567ffffffffffffffff811115611aad57611aac611a32565b5b611ab984828501611990565b600083015250602082013567ffffffffffffffff811115611add57611adc611a32565b5b611ae984828501611990565b6020830152506040611afd84828501611a58565b6040830152506060611b1184828501611a58565b60608301525092915050565b60008060408385031215611b3457611b336117d8565b5b6000611b428582860161182b565b925050602083013567ffffffffffffffff811115611b6357611b626117dd565b5b611b6f85828601611a6d565b9150509250929050565b600060208284031215611b8f57611b8e6117d8565b5b6000611b9d84828501611a58565b91505092915050565b611baf81611802565b82525050565b6000602082019050611bca6000830184611ba6565b92915050565b600060208284031215611be657611be56117d8565b5b6000611bf48482850161182b565b91505092915050565b611c0681611a37565b82525050565b6000602082019050611c216000830184611bfd565b92915050565b600081519050919050565b600082825260208201905092915050565b6000819050602082019050919050565b611c5c81611a37565b82525050565b611c6b81611802565b82525050565b611c7a81611840565b82525050565b600081519050919050565b600082825260208201905092915050565b60005b83811015611cba578082015181840152602081019050611c9f565b83811115611cc9576000848401525b50505050565b6000611cda82611c80565b611ce48185611c8b565b9350611cf4818560208601611c9c565b611cfd81611882565b840191505092915050565b600060c083016000830151611d206000860182611c53565b506020830151611d336020860182611c62565b506040830151611d466040860182611c71565b5060608301518482036060860152611d5e8282611ccf565b9150506080830151611d736080860182611c71565b5060a0830151611d8660a0860182611c53565b508091505092915050565b6000611d9d8383611d08565b905092915050565b6000602082019050919050565b6000611dbd82611c27565b611dc78185611c32565b935083602082028501611dd985611c43565b8060005b85811015611e155784840389528151611df68582611d91565b9450611e0183611da5565b925060208a01995050600181019050611ddd565b50829750879550505050505092915050565b60006020820190508181036000830152611e418184611db2565b905092915050565b60006080830160008301518482036000860152611e668282611ccf565b91505060208301518482036020860152611e808282611ccf565b9150506040830151611e956040860182611c53565b506060830151611ea86060860182611c53565b508091505092915050565b60006020820190508181036000830152611ecd8184611e49565b905092915050565b600060c083016000830151611eed6000860182611c53565b506020830151611f006020860182611c62565b506040830151611f136040860182611c71565b5060608301518482036060860152611f2b8282611ccf565b9150506080830151611f406080860182611c71565b5060a0830151611f5360a0860182611c53565b508091505092915050565b60006020820190508181036000830152611f788184611ed5565b905092915050565b611f8981611840565b82525050565b6000602082019050611fa46000830184611f80565b92915050565b600082825260208201905092915050565b6000611fc682611c80565b611fd08185611faa565b9350611fe0818560208601611c9c565b611fe981611882565b840191505092915050565b600060c0820190506120096000830189611bfd565b6120166020830188611ba6565b6120236040830187611f80565b81810360608301526120358186611fbb565b90506120446080830185611f80565b61205160a0830184611bfd565b979650505050505050565b7f4e487b7100000000000000000000000000000000000000000000000000000000600052602260045260246000fd5b600060028204905060018216806120a357607f821691505b6020821081036120b6576120b561205c565b5b50919050565b600081905092915050565b60008190508160005260206000209050919050565b600081546120e98161208b565b6120f381866120bc565b9450600182166000811461210e576001811461211f57612152565b60ff19831686528186019350612152565b612128856120c7565b60005b8381101561214a5781548189015260018201915060208101905061212b565b838801955050505b50505092915050565b600061216782846120dc565b915081905092915050565b7f43616e6e6f742073656e642053425420746f20536f756c20746861742068617360008201527f206e6f74206265656e206d696e74656400000000000000000000000000000000602082015250565b60006121ce603083611faa565b91506121d982612172565b604082019050919050565b600060208201905081810360008301526121fd816121c1565b9050919050565b7f41747465737465722068617320746f2068617665206120536f756c207468656d60008201527f73656c7665730000000000000000000000000000000000000000000000000000602082015250565b6000612260602683611faa565b915061226b82612204565b604082019050919050565b6000602082019050818103600083015261228f81612253565b9050919050565b7f4e487b7100000000000000000000000000000000000000000000000000000000600052601160045260246000fd5b60006122d082611a37565b91507fffffffffffffffffffffffffffffffffffffffffffffffffffffffffffffffff820361230257612301612296565b5b600182019050919050565b7f536f756c20616c72656164792065786973747300000000000000000000000000600082015250565b6000612343601383611faa565b915061234e8261230d565b602082019050919050565b6000602082019050818103600083015261237281612336565b9050919050565b7f456e746572656420546f6b656e496420646f6573206e6f742065786973740000600082015250565b60006123af601e83611faa565b91506123ba82612379565b602082019050919050565b600060208201905081810360008301526123de816123a2565b9050919050565b7f4e487b7100000000000000000000000000000000000000000000000000000000600052603260045260246000fd5b7f5342542068617320616c7265616479206265656e207265766f6b656400000000600082015250565b600061244a601c83611faa565b915061245582612414565b602082019050919050565b600060208201905081810360008301526124798161243d565b9050919050565b7f4f6e6c79206174746573746572206d6179207265766f6b6520546f6b656e0000600082015250565b60006124b6601e83611faa565b91506124c182612480565b602082019050919050565b600060208201905081810360008301526124e5816124a9565b9050919050565b60006124f782611a37565b91506000820361250a57612509612296565b5b600182039050919050565b7f4f6e6c7920536f756c204f776e657220686176652072696768747320746f206460008201527f656c657465207468656972206461746100000000000000000000000000000000602082015250565b6000612571603083611faa565b915061257c82612515565b604082019050919050565b600060208201905081810360008301526125a081612564565b9050919050565b7f4f6e6c792075736572732063616e2075706461746520736f756c206461746100600082015250565b60006125dd601f83611faa565b91506125e8826125a7565b602082019050919050565b6000602082019050818103600083015261260c816125d0565b905091905056fea26469706673582212203622c8b1160d23a1a785bedf7a5516460b804444f0769f13d31246d21f350d6b64736f6c634300080d0033",
  "linkReferences": {},
  "deployedLinkReferences": {}
}