{
  "_format": "hh-sol-artifact-1",
  "contractName": "SBT",
  "sourceName": "contracts/SBT.sol",
  "abi": [
    {
      "anonymous": false,
      "inputs": [
        {
          "indexed": false,
          "internalType": "address",
          "name": "_soul",
          "type": "address"
        }
      ],
      "name": "Attest",
      "type": "event"
    },
    {
      "anonymous": false,
      "inputs": [
        {
          "indexed": false,
          "internalType": "address",
          "name": "_soul",
          "type": "address"
        }
      ],
      "name": "Burn",
      "type": "event"
    },
    {
      "anonymous": false,
      "inputs": [
        {
          "indexed": false,
          "internalType": "address",
          "name": "_soul",
          "type": "address"
        }
      ],
      "name": "Mint",
      "type": "event"
    },
    {
      "anonymous": false,
      "inputs": [
        {
          "indexed": false,
          "internalType": "address",
          "name": "_profiler",
          "type": "address"
        },
        {
          "indexed": false,
          "internalType": "address",
          "name": "_soul",
          "type": "address"
        }
      ],
      "name": "RemoveProfile",
      "type": "event"
    },
    {
      "anonymous": false,
      "inputs": [
        {
          "indexed": false,
          "internalType": "uint256",
          "name": "_tokenId",
          "type": "uint256"
        }
      ],
      "name": "Revoke",
      "type": "event"
    },
    {
      "anonymous": false,
      "inputs": [
        {
          "indexed": false,
          "internalType": "address",
          "name": "_profiler",
          "type": "address"
        },
        {
          "indexed": false,
          "internalType": "address",
          "name": "_soul",
          "type": "address"
        }
      ],
      "name": "SetProfile",
      "type": "event"
    },
    {
      "anonymous": false,
      "inputs": [
        {
          "indexed": false,
          "internalType": "address",
          "name": "_soul",
          "type": "address"
        }
      ],
      "name": "Update",
      "type": "event"
    },
    {
      "inputs": [
        {
          "internalType": "uint256",
          "name": "",
          "type": "uint256"
        }
      ],
      "name": "SbtToSoul",
      "outputs": [
        {
          "internalType": "address",
          "name": "",
          "type": "address"
        }
      ],
      "stateMutability": "view",
      "type": "function"
    },
    {
      "inputs": [
        {
          "internalType": "address",
          "name": "_targetSoul",
          "type": "address"
        },
        {
          "internalType": "bool",
          "name": "_reputation",
          "type": "bool"
        },
        {
          "internalType": "string",
          "name": "_explanation_url",
          "type": "string"
        }
      ],
      "name": "attest",
      "outputs": [],
      "stateMutability": "nonpayable",
      "type": "function"
    },
    {
      "inputs": [
        {
          "internalType": "address",
          "name": "_soul",
          "type": "address"
        }
      ],
      "name": "burn",
      "outputs": [],
      "stateMutability": "nonpayable",
      "type": "function"
    },
    {
      "inputs": [
        {
          "internalType": "uint256",
          "name": "_sbt",
          "type": "uint256"
        }
      ],
      "name": "getSbt",
      "outputs": [
        {
          "components": [
            {
              "internalType": "uint256",
              "name": "tokenId",
              "type": "uint256"
            },
            {
              "internalType": "address",
              "name": "attester",
              "type": "address"
            },
            {
              "internalType": "bool",
              "name": "reputation",
              "type": "bool"
            },
            {
              "internalType": "string",
              "name": "explanation_url",
              "type": "string"
            },
            {
              "internalType": "bool",
              "name": "active",
              "type": "bool"
            },
            {
              "internalType": "uint256",
              "name": "timestamp",
              "type": "uint256"
            }
          ],
          "internalType": "struct SBT.Sbt",
          "name": "",
          "type": "tuple"
        }
      ],
      "stateMutability": "view",
      "type": "function"
    },
    {
      "inputs": [
        {
          "internalType": "address",
          "name": "_soul",
          "type": "address"
        }
      ],
      "name": "getSbtsBySoul",
      "outputs": [
        {
          "components": [
            {
              "internalType": "uint256",
              "name": "tokenId",
              "type": "uint256"
            },
            {
              "internalType": "address",
              "name": "attester",
              "type": "address"
            },
            {
              "internalType": "bool",
              "name": "reputation",
              "type": "bool"
            },
            {
              "internalType": "string",
              "name": "explanation_url",
              "type": "string"
            },
            {
              "internalType": "bool",
              "name": "active",
              "type": "bool"
            },
            {
              "internalType": "uint256",
              "name": "timestamp",
              "type": "uint256"
            }
          ],
          "internalType": "struct SBT.Sbt[]",
          "name": "",
          "type": "tuple[]"
        }
      ],
      "stateMutability": "view",
      "type": "function"
    },
    {
      "inputs": [
        {
          "internalType": "address",
          "name": "_soul",
          "type": "address"
        }
      ],
      "name": "getSoul",
      "outputs": [
        {
          "components": [
            {
              "internalType": "string",
              "name": "identity",
              "type": "string"
            },
            {
              "internalType": "string",
              "name": "url",
              "type": "string"
            },
            {
              "internalType": "uint256",
              "name": "score",
              "type": "uint256"
            },
            {
              "internalType": "uint256",
              "name": "timestamp",
              "type": "uint256"
            }
          ],
          "internalType": "struct SBT.Soul",
          "name": "",
          "type": "tuple"
        }
      ],
      "stateMutability": "view",
      "type": "function"
    },
    {
      "inputs": [
        {
          "internalType": "address",
          "name": "_soul",
          "type": "address"
        }
      ],
      "name": "hasSbt",
      "outputs": [
        {
          "internalType": "bool",
          "name": "",
          "type": "bool"
        }
      ],
      "stateMutability": "view",
      "type": "function"
    },
    {
      "inputs": [
        {
          "internalType": "address",
          "name": "_soul",
          "type": "address"
        }
      ],
      "name": "hasSoul",
      "outputs": [
        {
          "internalType": "bool",
          "name": "",
          "type": "bool"
        }
      ],
      "stateMutability": "view",
      "type": "function"
    },
    {
      "inputs": [
        {
          "internalType": "address",
          "name": "_soul",
          "type": "address"
        },
        {
          "components": [
            {
              "internalType": "string",
              "name": "identity",
              "type": "string"
            },
            {
              "internalType": "string",
              "name": "url",
              "type": "string"
            },
            {
              "internalType": "uint256",
              "name": "score",
              "type": "uint256"
            },
            {
              "internalType": "uint256",
              "name": "timestamp",
              "type": "uint256"
            }
          ],
          "internalType": "struct SBT.Soul",
          "name": "_soulData",
          "type": "tuple"
        }
      ],
      "name": "mint",
      "outputs": [],
      "stateMutability": "nonpayable",
      "type": "function"
    },
    {
      "inputs": [
        {
          "internalType": "uint256",
          "name": "_tokenId",
          "type": "uint256"
        }
      ],
      "name": "revoke",
      "outputs": [],
      "stateMutability": "nonpayable",
      "type": "function"
    },
    {
      "inputs": [
        {
          "internalType": "uint256",
          "name": "",
          "type": "uint256"
        }
      ],
      "name": "sbts",
      "outputs": [
        {
          "internalType": "uint256",
          "name": "tokenId",
          "type": "uint256"
        },
        {
          "internalType": "address",
          "name": "attester",
          "type": "address"
        },
        {
          "internalType": "bool",
          "name": "reputation",
          "type": "bool"
        },
        {
          "internalType": "string",
          "name": "explanation_url",
          "type": "string"
        },
        {
          "internalType": "bool",
          "name": "active",
          "type": "bool"
        },
        {
          "internalType": "uint256",
          "name": "timestamp",
          "type": "uint256"
        }
      ],
      "stateMutability": "view",
      "type": "function"
    },
    {
      "inputs": [
        {
          "internalType": "address",
          "name": "",
          "type": "address"
        }
      ],
      "name": "soulSbtCount",
      "outputs": [
        {
          "internalType": "uint256",
          "name": "",
          "type": "uint256"
        }
      ],
      "stateMutability": "view",
      "type": "function"
    }
  ],
  "bytecode": "0x60806040527fc5d2460186f7233c927e7db2dcc703c0e500b653ca82273b7bfad8045d85a47060001b600655600060075534801561003c57600080fd5b506126cd8061004c6000396000f3fe608060405234801561001057600080fd5b50600436106100b45760003560e01c806366cfe97f1161007157806366cfe97f1461019d57806371dec1d6146101cd57806387b605a5146101fd57806389afcb441461022d578063b900825114610249578063bdd752021461027e576100b4565b80630c168bf7146100b957806320a2d60b146100d557806320c5429b146100f1578063251d31571461010d578063352451c11461013d578063375577b41461016d575b600080fd5b6100d360048036038101906100ce9190611ab5565b6102ae565b005b6100ef60048036038101906100ea9190611c14565b61060e565b005b61010b60048036038101906101069190611c70565b610774565b005b61012760048036038101906101229190611c70565b610a9b565b6040516101349190611cac565b60405180910390f35b61015760048036038101906101529190611cc7565b610ace565b6040516101649190611d03565b60405180910390f35b61018760048036038101906101829190611cc7565b610ae6565b6040516101949190611f1e565b60405180910390f35b6101b760048036038101906101b29190611cc7565b610da0565b6040516101c49190611faa565b60405180910390f35b6101e760048036038101906101e29190611c70565b610f31565b6040516101f49190612055565b60405180910390f35b61021760048036038101906102129190611cc7565b61109f565b6040516102249190612086565b60405180910390f35b61024760048036038101906102429190611cc7565b611142565b005b610263600480360381019061025e9190611c70565b6113f4565b604051610275969594939291906120eb565b60405180910390f35b61029860048036038101906102939190611cc7565b611502565b6040516102a59190612086565b60405180910390f35b600654600360008573ffffffffffffffffffffffffffffffffffffffff1673ffffffffffffffffffffffffffffffffffffffff1681526020019081526020016000206000016040516103009190612252565b604051809103902003610348576040517f08c379a000000000000000000000000000000000000000000000000000000000815260040161033f906122db565b60405180910390fd5b600654600360003373ffffffffffffffffffffffffffffffffffffffff1673ffffffffffffffffffffffffffffffffffffffff16815260200190815260200160002060000160405161039a9190612252565b6040518091039020036103e2576040517f08c379a00000000000000000000000000000000000000000000000000000000081526004016103d99061236d565b60405180910390fd5b60006040518060c0016040528060075481526020013373ffffffffffffffffffffffffffffffffffffffff16815260200184151581526020018381526020016001151581526020014281525090806001815401808255809150506001900390600052602060002090600502016000909190919091506000820151816000015560208201518160010160006101000a81548173ffffffffffffffffffffffffffffffffffffffff021916908373ffffffffffffffffffffffffffffffffffffffff16021790555060408201518160010160146101000a81548160ff02191690831515021790555060608201518160020190805190602001906104e492919061176a565b5060808201518160030160006101000a81548160ff02191690831515021790555060a0820151816004015550508260026000600754815260200190815260200160002060006101000a81548173ffffffffffffffffffffffffffffffffffffffff021916908373ffffffffffffffffffffffffffffffffffffffff160217905550600160008473ffffffffffffffffffffffffffffffffffffffff1673ffffffffffffffffffffffffffffffffffffffff16815260200190815260200160002060008154809291906105b5906123bc565b9190505550600760008154809291906105cd906123bc565b91905055507fa328081b89fa2a8c125b882f505f0a9ef17623cd428d7de77f609076d85d25e0836040516106019190611cac565b60405180910390a1505050565b600654600360008473ffffffffffffffffffffffffffffffffffffffff1673ffffffffffffffffffffffffffffffffffffffff1681526020019081526020016000206000016040516106609190612252565b6040518091039020146106a8576040517f08c379a000000000000000000000000000000000000000000000000000000000815260040161069f90612450565b60405180910390fd5b80600360008473ffffffffffffffffffffffffffffffffffffffff1673ffffffffffffffffffffffffffffffffffffffff168152602001908152602001600020600082015181600001908051906020019061070492919061176a565b50602082015181600101908051906020019061072192919061176a565b5060408201518160020155606082015181600301559050507f3c3284d117c92d0b1699230960384e794dcba184cc48ff114fe4fed20c9b0565826040516107689190611cac565b60405180910390a15050565b6007548111156107b9576040517f08c379a00000000000000000000000000000000000000000000000000000000081526004016107b0906124bc565b60405180910390fd5b60011515600082815481106107d1576107d06124dc565b5b906000526020600020906005020160030160009054906101000a900460ff16151514610832576040517f08c379a000000000000000000000000000000000000000000000000000000000815260040161082990612557565b60405180910390fd5b3373ffffffffffffffffffffffffffffffffffffffff166000828154811061085d5761085c6124dc565b5b906000526020600020906005020160010160009054906101000a900473ffffffffffffffffffffffffffffffffffffffff1673ffffffffffffffffffffffffffffffffffffffff16146108e5576040517f08c379a00000000000000000000000000000000000000000000000000000000081526004016108dc906125c3565b60405180910390fd5b60008082815481106108fa576108f96124dc565b5b906000526020600020906005020160030160006101000a81548160ff02191690831515021790555061097060008281548110610939576109386124dc565b5b906000526020600020906005020160010160009054906101000a900473ffffffffffffffffffffffffffffffffffffffff16611576565b6109ab60008281548110610987576109866124dc565b5b906000526020600020906005020160030160009054906101000a900460ff1661160f565b610a61600082815481106109c2576109c16124dc565b5b906000526020600020906005020160020180546109de90612182565b80601f0160208091040260200160405190810160405280929190818152602001828054610a0a90612182565b8015610a575780601f10610a2c57610100808354040283529160200191610a57565b820191906000526020600020905b815481529060010190602001808311610a3a57829003601f168201915b50505050506116a8565b7fdb43aa42235c8d63908794a952603e8d43a549383d13123c3d893a3fc2e6249581604051610a909190611d03565b60405180910390a150565b60026020528060005260406000206000915054906101000a900473ffffffffffffffffffffffffffffffffffffffff1681565b60016020528060005260406000206000915090505481565b60606000600160008473ffffffffffffffffffffffffffffffffffffffff1673ffffffffffffffffffffffffffffffffffffffff1681526020019081526020016000205467ffffffffffffffff811115610b4357610b4261198a565b5b604051908082528060200260200182016040528015610b7c57816020015b610b696117f0565b815260200190600190039081610b615790505b5090506000805b600080549050811015610d95578473ffffffffffffffffffffffffffffffffffffffff166002600083815260200190815260200160002060009054906101000a900473ffffffffffffffffffffffffffffffffffffffff1673ffffffffffffffffffffffffffffffffffffffff1603610d825760008181548110610c0a57610c096124dc565b5b90600052602060002090600502016040518060c0016040529081600082015481526020016001820160009054906101000a900473ffffffffffffffffffffffffffffffffffffffff1673ffffffffffffffffffffffffffffffffffffffff1673ffffffffffffffffffffffffffffffffffffffff1681526020016001820160149054906101000a900460ff16151515158152602001600282018054610cae90612182565b80601f0160208091040260200160405190810160405280929190818152602001828054610cda90612182565b8015610d275780601f10610cfc57610100808354040283529160200191610d27565b820191906000526020600020905b815481529060010190602001808311610d0a57829003601f168201915b505050505081526020016003820160009054906101000a900460ff16151515158152602001600482015481525050838381518110610d6857610d676124dc565b5b60200260200101819052508180610d7e906123bc565b9250505b8080610d8d906123bc565b915050610b83565b508192505050919050565b610da8611840565b600360008373ffffffffffffffffffffffffffffffffffffffff1673ffffffffffffffffffffffffffffffffffffffff168152602001908152602001600020604051806080016040529081600082018054610e0290612182565b80601f0160208091040260200160405190810160405280929190818152602001828054610e2e90612182565b8015610e7b5780601f10610e5057610100808354040283529160200191610e7b565b820191906000526020600020905b815481529060010190602001808311610e5e57829003601f168201915b50505050508152602001600182018054610e9490612182565b80601f0160208091040260200160405190810160405280929190818152602001828054610ec090612182565b8015610f0d5780601f10610ee257610100808354040283529160200191610f0d565b820191906000526020600020905b815481529060010190602001808311610ef057829003601f168201915b50505050508152602001600282015481526020016003820154815250509050919050565b610f396117f0565b60008281548110610f4d57610f4c6124dc565b5b90600052602060002090600502016040518060c0016040529081600082015481526020016001820160009054906101000a900473ffffffffffffffffffffffffffffffffffffffff1673ffffffffffffffffffffffffffffffffffffffff1673ffffffffffffffffffffffffffffffffffffffff1681526020016001820160149054906101000a900460ff16151515158152602001600282018054610ff190612182565b80601f016020809104026020016040519081016040528092919081815260200182805461101d90612182565b801561106a5780601f1061103f5761010080835404028352916020019161106a565b820191906000526020600020905b81548152906001019060200180831161104d57829003601f168201915b505050505081526020016003820160009054906101000a900460ff161515151581526020016004820154815250509050919050565b600080600090505b600080549050811015611137578273ffffffffffffffffffffffffffffffffffffffff166002600083815260200190815260200160002060009054906101000a900473ffffffffffffffffffffffffffffffffffffffff1673ffffffffffffffffffffffffffffffffffffffff160361112457600191505061113d565b808061112f906123bc565b9150506110a7565b50600090505b919050565b8073ffffffffffffffffffffffffffffffffffffffff163373ffffffffffffffffffffffffffffffffffffffff16146111b0576040517f08c379a00000000000000000000000000000000000000000000000000000000081526004016111a790612655565b60405180910390fd5b60005b600080549050811015611304578173ffffffffffffffffffffffffffffffffffffffff166002600083815260200190815260200160002060009054906101000a900473ffffffffffffffffffffffffffffffffffffffff1673ffffffffffffffffffffffffffffffffffffffff16036112f1576000818154811061123a576112396124dc565b5b90600052602060002090600502016000808201600090556001820160006101000a81549073ffffffffffffffffffffffffffffffffffffffff02191690556001820160146101000a81549060ff021916905560028201600061129c9190611868565b6003820160006101000a81549060ff0219169055600482016000905550506002600082815260200190815260200160002060006101000a81549073ffffffffffffffffffffffffffffffffffffffff02191690555b80806112fc906123bc565b9150506111b3565b50600360008273ffffffffffffffffffffffffffffffffffffffff1673ffffffffffffffffffffffffffffffffffffffff168152602001908152602001600020600080820160006113559190611868565b6001820160006113659190611868565b600282016000905560038201600090555050600160008273ffffffffffffffffffffffffffffffffffffffff1673ffffffffffffffffffffffffffffffffffffffff168152602001908152602001600020600090557fe22de1457cb61fb61b60176bc4235a9abd19466126b46692bc14fc573f099249816040516113e99190611cac565b60405180910390a150565b6000818154811061140457600080fd5b90600052602060002090600502016000915090508060000154908060010160009054906101000a900473ffffffffffffffffffffffffffffffffffffffff16908060010160149054906101000a900460ff169080600201805461146690612182565b80601f016020809104026020016040519081016040528092919081815260200182805461149290612182565b80156114df5780601f106114b4576101008083540402835291602001916114df565b820191906000526020600020905b8154815290600101906020018083116114c257829003601f168201915b5050505050908060030160009054906101000a900460ff16908060040154905086565b6000600654600360008473ffffffffffffffffffffffffffffffffffffffff1673ffffffffffffffffffffffffffffffffffffffff1681526020019081526020016000206000016040516115569190612252565b60405180910390200361156c5760009050611571565b600190505b919050565b61160c8160405160240161158a9190611cac565b6040516020818303038152906040527f2c2ecbc2000000000000000000000000000000000000000000000000000000007bffffffffffffffffffffffffffffffffffffffffffffffffffffffff19166020820180517bffffffffffffffffffffffffffffffffffffffffffffffffffffffff8381831617835250505050611741565b50565b6116a5816040516024016116239190612086565b6040516020818303038152906040527f32458eed000000000000000000000000000000000000000000000000000000007bffffffffffffffffffffffffffffffffffffffffffffffffffffffff19166020820180517bffffffffffffffffffffffffffffffffffffffffffffffffffffffff8381831617835250505050611741565b50565b61173e816040516024016116bc9190612675565b6040516020818303038152906040527f41304fac000000000000000000000000000000000000000000000000000000007bffffffffffffffffffffffffffffffffffffffffffffffffffffffff19166020820180517bffffffffffffffffffffffffffffffffffffffffffffffffffffffff8381831617835250505050611741565b50565b60008151905060006a636f6e736f6c652e6c6f679050602083016000808483855afa5050505050565b82805461177690612182565b90600052602060002090601f01602090048101928261179857600085556117df565b82601f106117b157805160ff19168380011785556117df565b828001600101855582156117df579182015b828111156117de5782518255916020019190600101906117c3565b5b5090506117ec91906118a8565b5090565b6040518060c0016040528060008152602001600073ffffffffffffffffffffffffffffffffffffffff16815260200160001515815260200160608152602001600015158152602001600081525090565b6040518060800160405280606081526020016060815260200160008152602001600081525090565b50805461187490612182565b6000825580601f1061188657506118a5565b601f0160209004906000526020600020908101906118a491906118a8565b5b50565b5b808211156118c15760008160009055506001016118a9565b5090565b6000604051905090565b600080fd5b600080fd5b600073ffffffffffffffffffffffffffffffffffffffff82169050919050565b6000611904826118d9565b9050919050565b611914816118f9565b811461191f57600080fd5b50565b6000813590506119318161190b565b92915050565b60008115159050919050565b61194c81611937565b811461195757600080fd5b50565b60008135905061196981611943565b92915050565b600080fd5b600080fd5b6000601f19601f8301169050919050565b7f4e487b7100000000000000000000000000000000000000000000000000000000600052604160045260246000fd5b6119c282611979565b810181811067ffffffffffffffff821117156119e1576119e061198a565b5b80604052505050565b60006119f46118c5565b9050611a0082826119b9565b919050565b600067ffffffffffffffff821115611a2057611a1f61198a565b5b611a2982611979565b9050602081019050919050565b82818337600083830152505050565b6000611a58611a5384611a05565b6119ea565b905082815260208101848484011115611a7457611a73611974565b5b611a7f848285611a36565b509392505050565b600082601f830112611a9c57611a9b61196f565b5b8135611aac848260208601611a45565b91505092915050565b600080600060608486031215611ace57611acd6118cf565b5b6000611adc86828701611922565b9350506020611aed8682870161195a565b925050604084013567ffffffffffffffff811115611b0e57611b0d6118d4565b5b611b1a86828701611a87565b9150509250925092565b600080fd5b600080fd5b6000819050919050565b611b4181611b2e565b8114611b4c57600080fd5b50565b600081359050611b5e81611b38565b92915050565b600060808284031215611b7a57611b79611b24565b5b611b8460806119ea565b9050600082013567ffffffffffffffff811115611ba457611ba3611b29565b5b611bb084828501611a87565b600083015250602082013567ffffffffffffffff811115611bd457611bd3611b29565b5b611be084828501611a87565b6020830152506040611bf484828501611b4f565b6040830152506060611c0884828501611b4f565b60608301525092915050565b60008060408385031215611c2b57611c2a6118cf565b5b6000611c3985828601611922565b925050602083013567ffffffffffffffff811115611c5a57611c596118d4565b5b611c6685828601611b64565b9150509250929050565b600060208284031215611c8657611c856118cf565b5b6000611c9484828501611b4f565b91505092915050565b611ca6816118f9565b82525050565b6000602082019050611cc16000830184611c9d565b92915050565b600060208284031215611cdd57611cdc6118cf565b5b6000611ceb84828501611922565b91505092915050565b611cfd81611b2e565b82525050565b6000602082019050611d186000830184611cf4565b92915050565b600081519050919050565b600082825260208201905092915050565b6000819050602082019050919050565b611d5381611b2e565b82525050565b611d62816118f9565b82525050565b611d7181611937565b82525050565b600081519050919050565b600082825260208201905092915050565b60005b83811015611db1578082015181840152602081019050611d96565b83811115611dc0576000848401525b50505050565b6000611dd182611d77565b611ddb8185611d82565b9350611deb818560208601611d93565b611df481611979565b840191505092915050565b600060c083016000830151611e176000860182611d4a565b506020830151611e2a6020860182611d59565b506040830151611e3d6040860182611d68565b5060608301518482036060860152611e558282611dc6565b9150506080830151611e6a6080860182611d68565b5060a0830151611e7d60a0860182611d4a565b508091505092915050565b6000611e948383611dff565b905092915050565b6000602082019050919050565b6000611eb482611d1e565b611ebe8185611d29565b935083602082028501611ed085611d3a565b8060005b85811015611f0c5784840389528151611eed8582611e88565b9450611ef883611e9c565b925060208a01995050600181019050611ed4565b50829750879550505050505092915050565b60006020820190508181036000830152611f388184611ea9565b905092915050565b60006080830160008301518482036000860152611f5d8282611dc6565b91505060208301518482036020860152611f778282611dc6565b9150506040830151611f8c6040860182611d4a565b506060830151611f9f6060860182611d4a565b508091505092915050565b60006020820190508181036000830152611fc48184611f40565b905092915050565b600060c083016000830151611fe46000860182611d4a565b506020830151611ff76020860182611d59565b50604083015161200a6040860182611d68565b50606083015184820360608601526120228282611dc6565b91505060808301516120376080860182611d68565b5060a083015161204a60a0860182611d4a565b508091505092915050565b6000602082019050818103600083015261206f8184611fcc565b905092915050565b61208081611937565b82525050565b600060208201905061209b6000830184612077565b92915050565b600082825260208201905092915050565b60006120bd82611d77565b6120c781856120a1565b93506120d7818560208601611d93565b6120e081611979565b840191505092915050565b600060c0820190506121006000830189611cf4565b61210d6020830188611c9d565b61211a6040830187612077565b818103606083015261212c81866120b2565b905061213b6080830185612077565b61214860a0830184611cf4565b979650505050505050565b7f4e487b7100000000000000000000000000000000000000000000000000000000600052602260045260246000fd5b6000600282049050600182168061219a57607f821691505b6020821081036121ad576121ac612153565b5b50919050565b600081905092915050565b60008190508160005260206000209050919050565b600081546121e081612182565b6121ea81866121b3565b94506001821660008114612205576001811461221657612249565b60ff19831686528186019350612249565b61221f856121be565b60005b8381101561224157815481890152600182019150602081019050612222565b838801955050505b50505092915050565b600061225e82846121d3565b915081905092915050565b7f43616e6e6f742073656e642053425420746f20536f756c20746861742068617360008201527f206e6f74206265656e206d696e74656400000000000000000000000000000000602082015250565b60006122c56030836120a1565b91506122d082612269565b604082019050919050565b600060208201905081810360008301526122f4816122b8565b9050919050565b7f41747465737465722068617320746f2068617665206120536f756c207468656d60008201527f73656c7665730000000000000000000000000000000000000000000000000000602082015250565b60006123576026836120a1565b9150612362826122fb565b604082019050919050565b600060208201905081810360008301526123868161234a565b9050919050565b7f4e487b7100000000000000000000000000000000000000000000000000000000600052601160045260246000fd5b60006123c782611b2e565b91507fffffffffffffffffffffffffffffffffffffffffffffffffffffffffffffffff82036123f9576123f861238d565b5b600182019050919050565b7f536f756c20616c72656164792065786973747300000000000000000000000000600082015250565b600061243a6013836120a1565b915061244582612404565b602082019050919050565b600060208201905081810360008301526124698161242d565b9050919050565b7f456e746572656420546f6b656e496420646f6573206e6f742065786973740000600082015250565b60006124a6601e836120a1565b91506124b182612470565b602082019050919050565b600060208201905081810360008301526124d581612499565b9050919050565b7f4e487b7100000000000000000000000000000000000000000000000000000000600052603260045260246000fd5b7f5342542068617320616c7265616479206265656e207265766f6b656400000000600082015250565b6000612541601c836120a1565b915061254c8261250b565b602082019050919050565b6000602082019050818103600083015261257081612534565b9050919050565b7f4f6e6c79206174746573746572206d6179207265766f6b6520546f6b656e0000600082015250565b60006125ad601e836120a1565b91506125b882612577565b602082019050919050565b600060208201905081810360008301526125dc816125a0565b9050919050565b7f4f6e6c7920536f756c204f776e657220686176652072696768747320746f206460008201527f656c657465207468656972206461746100000000000000000000000000000000602082015250565b600061263f6030836120a1565b915061264a826125e3565b604082019050919050565b6000602082019050818103600083015261266e81612632565b9050919050565b6000602082019050818103600083015261268f81846120b2565b90509291505056fea26469706673582212201b47a081cae0c917e0278c2e6b24be32dd6cabf30028f55d5178f3adb58b659064736f6c634300080d0033",
  "linkReferences": {},
  "deployedLinkReferences": {}
}