{
  "_format": "hh-sol-artifact-1",
  "contractName": "SBT",
  "sourceName": "contracts/SBT.sol",
  "abi": [
    {
      "inputs": [
        {
          "internalType": "string",
          "name": "_name",
          "type": "string"
        },
        {
          "internalType": "string",
          "name": "_ticker",
          "type": "string"
        }
      ],
      "stateMutability": "nonpayable",
      "type": "constructor"
    },
    {
      "anonymous": false,
      "inputs": [
        {
          "indexed": false,
          "internalType": "address",
          "name": "_soul",
          "type": "address"
        }
      ],
      "name": "Attest",
      "type": "event"
    },
    {
      "anonymous": false,
      "inputs": [
        {
          "indexed": false,
          "internalType": "address",
          "name": "_soul",
          "type": "address"
        }
      ],
      "name": "Burn",
      "type": "event"
    },
    {
      "anonymous": false,
      "inputs": [
        {
          "indexed": false,
          "internalType": "address",
          "name": "_soul",
          "type": "address"
        }
      ],
      "name": "Mint",
      "type": "event"
    },
    {
      "anonymous": false,
      "inputs": [
        {
          "indexed": false,
          "internalType": "address",
          "name": "_profiler",
          "type": "address"
        },
        {
          "indexed": false,
          "internalType": "address",
          "name": "_soul",
          "type": "address"
        }
      ],
      "name": "RemoveProfile",
      "type": "event"
    },
    {
      "anonymous": false,
      "inputs": [
        {
          "indexed": false,
          "internalType": "uint256",
          "name": "_tokenId",
          "type": "uint256"
        }
      ],
      "name": "Revoke",
      "type": "event"
    },
    {
      "anonymous": false,
      "inputs": [
        {
          "indexed": false,
          "internalType": "address",
          "name": "_profiler",
          "type": "address"
        },
        {
          "indexed": false,
          "internalType": "address",
          "name": "_soul",
          "type": "address"
        }
      ],
      "name": "SetProfile",
      "type": "event"
    },
    {
      "anonymous": false,
      "inputs": [
        {
          "indexed": false,
          "internalType": "address",
          "name": "_soul",
          "type": "address"
        }
      ],
      "name": "Update",
      "type": "event"
    },
    {
      "inputs": [
        {
          "internalType": "uint256",
          "name": "",
          "type": "uint256"
        }
      ],
      "name": "SbtToSoul",
      "outputs": [
        {
          "internalType": "address",
          "name": "",
          "type": "address"
        }
      ],
      "stateMutability": "view",
      "type": "function"
    },
    {
      "inputs": [
        {
          "internalType": "address",
          "name": "_targetSoul",
          "type": "address"
        },
        {
          "internalType": "bool",
          "name": "_reputation",
          "type": "bool"
        },
        {
          "internalType": "string",
          "name": "_explanation_url",
          "type": "string"
        }
      ],
      "name": "attest",
      "outputs": [],
      "stateMutability": "nonpayable",
      "type": "function"
    },
    {
      "inputs": [
        {
          "internalType": "address",
          "name": "_soul",
          "type": "address"
        }
      ],
      "name": "burn",
      "outputs": [],
      "stateMutability": "nonpayable",
      "type": "function"
    },
    {
      "inputs": [
        {
          "internalType": "address",
          "name": "_profiler",
          "type": "address"
        },
        {
          "internalType": "address",
          "name": "_soul",
          "type": "address"
        }
      ],
      "name": "getProfile",
      "outputs": [
        {
          "components": [
            {
              "internalType": "string",
              "name": "identity",
              "type": "string"
            },
            {
              "internalType": "string",
              "name": "url",
              "type": "string"
            },
            {
              "internalType": "uint256",
              "name": "score",
              "type": "uint256"
            },
            {
              "internalType": "uint256",
              "name": "timestamp",
              "type": "uint256"
            }
          ],
          "internalType": "struct SBT.Soul",
          "name": "",
          "type": "tuple"
        }
      ],
      "stateMutability": "view",
      "type": "function"
    },
    {
      "inputs": [
        {
          "internalType": "uint256",
          "name": "_sbt",
          "type": "uint256"
        }
      ],
      "name": "getSbt",
      "outputs": [
        {
          "components": [
            {
              "internalType": "uint256",
              "name": "tokenId",
              "type": "uint256"
            },
            {
              "internalType": "address",
              "name": "attester",
              "type": "address"
            },
            {
              "internalType": "bool",
              "name": "reputation",
              "type": "bool"
            },
            {
              "internalType": "string",
              "name": "explanation_url",
              "type": "string"
            },
            {
              "internalType": "bool",
              "name": "active",
              "type": "bool"
            }
          ],
          "internalType": "struct SBT.Sbt",
          "name": "",
          "type": "tuple"
        }
      ],
      "stateMutability": "view",
      "type": "function"
    },
    {
      "inputs": [
        {
          "internalType": "address",
          "name": "_soul",
          "type": "address"
        }
      ],
      "name": "getSbtsBySoul",
      "outputs": [
        {
          "components": [
            {
              "internalType": "uint256",
              "name": "tokenId",
              "type": "uint256"
            },
            {
              "internalType": "address",
              "name": "attester",
              "type": "address"
            },
            {
              "internalType": "bool",
              "name": "reputation",
              "type": "bool"
            },
            {
              "internalType": "string",
              "name": "explanation_url",
              "type": "string"
            },
            {
              "internalType": "bool",
              "name": "active",
              "type": "bool"
            }
          ],
          "internalType": "struct SBT.Sbt[]",
          "name": "",
          "type": "tuple[]"
        }
      ],
      "stateMutability": "view",
      "type": "function"
    },
    {
      "inputs": [
        {
          "internalType": "address",
          "name": "_soul",
          "type": "address"
        }
      ],
      "name": "getSoul",
      "outputs": [
        {
          "components": [
            {
              "internalType": "string",
              "name": "identity",
              "type": "string"
            },
            {
              "internalType": "string",
              "name": "url",
              "type": "string"
            },
            {
              "internalType": "uint256",
              "name": "score",
              "type": "uint256"
            },
            {
              "internalType": "uint256",
              "name": "timestamp",
              "type": "uint256"
            }
          ],
          "internalType": "struct SBT.Soul",
          "name": "",
          "type": "tuple"
        }
      ],
      "stateMutability": "view",
      "type": "function"
    },
    {
      "inputs": [
        {
          "internalType": "address",
          "name": "_profiler",
          "type": "address"
        },
        {
          "internalType": "address",
          "name": "_soul",
          "type": "address"
        }
      ],
      "name": "hasProfile",
      "outputs": [
        {
          "internalType": "bool",
          "name": "",
          "type": "bool"
        }
      ],
      "stateMutability": "view",
      "type": "function"
    },
    {
      "inputs": [
        {
          "internalType": "address",
          "name": "_soul",
          "type": "address"
        }
      ],
      "name": "hasSbt",
      "outputs": [
        {
          "internalType": "bool",
          "name": "",
          "type": "bool"
        }
      ],
      "stateMutability": "view",
      "type": "function"
    },
    {
      "inputs": [
        {
          "internalType": "address",
          "name": "_soul",
          "type": "address"
        }
      ],
      "name": "hasSoul",
      "outputs": [
        {
          "internalType": "bool",
          "name": "",
          "type": "bool"
        }
      ],
      "stateMutability": "view",
      "type": "function"
    },
    {
      "inputs": [
        {
          "internalType": "address",
          "name": "_soul",
          "type": "address"
        }
      ],
      "name": "listProfiles",
      "outputs": [
        {
          "internalType": "address[]",
          "name": "",
          "type": "address[]"
        }
      ],
      "stateMutability": "view",
      "type": "function"
    },
    {
      "inputs": [
        {
          "internalType": "address",
          "name": "_soul",
          "type": "address"
        },
        {
          "components": [
            {
              "internalType": "string",
              "name": "identity",
              "type": "string"
            },
            {
              "internalType": "string",
              "name": "url",
              "type": "string"
            },
            {
              "internalType": "uint256",
              "name": "score",
              "type": "uint256"
            },
            {
              "internalType": "uint256",
              "name": "timestamp",
              "type": "uint256"
            }
          ],
          "internalType": "struct SBT.Soul",
          "name": "_soulData",
          "type": "tuple"
        }
      ],
      "name": "mint",
      "outputs": [],
      "stateMutability": "nonpayable",
      "type": "function"
    },
    {
      "inputs": [],
      "name": "name",
      "outputs": [
        {
          "internalType": "string",
          "name": "",
          "type": "string"
        }
      ],
      "stateMutability": "view",
      "type": "function"
    },
    {
      "inputs": [],
      "name": "operator",
      "outputs": [
        {
          "internalType": "address",
          "name": "",
          "type": "address"
        }
      ],
      "stateMutability": "view",
      "type": "function"
    },
    {
      "inputs": [
        {
          "internalType": "address",
          "name": "_profiler",
          "type": "address"
        },
        {
          "internalType": "address",
          "name": "_soul",
          "type": "address"
        }
      ],
      "name": "removeProfile",
      "outputs": [],
      "stateMutability": "nonpayable",
      "type": "function"
    },
    {
      "inputs": [
        {
          "internalType": "uint256",
          "name": "_tokenId",
          "type": "uint256"
        }
      ],
      "name": "revoke",
      "outputs": [],
      "stateMutability": "nonpayable",
      "type": "function"
    },
    {
      "inputs": [
        {
          "internalType": "uint256",
          "name": "",
          "type": "uint256"
        }
      ],
      "name": "sbts",
      "outputs": [
        {
          "internalType": "uint256",
          "name": "tokenId",
          "type": "uint256"
        },
        {
          "internalType": "address",
          "name": "attester",
          "type": "address"
        },
        {
          "internalType": "bool",
          "name": "reputation",
          "type": "bool"
        },
        {
          "internalType": "string",
          "name": "explanation_url",
          "type": "string"
        },
        {
          "internalType": "bool",
          "name": "active",
          "type": "bool"
        }
      ],
      "stateMutability": "view",
      "type": "function"
    },
    {
      "inputs": [
        {
          "internalType": "address",
          "name": "_soul",
          "type": "address"
        },
        {
          "components": [
            {
              "internalType": "string",
              "name": "identity",
              "type": "string"
            },
            {
              "internalType": "string",
              "name": "url",
              "type": "string"
            },
            {
              "internalType": "uint256",
              "name": "score",
              "type": "uint256"
            },
            {
              "internalType": "uint256",
              "name": "timestamp",
              "type": "uint256"
            }
          ],
          "internalType": "struct SBT.Soul",
          "name": "_soulData",
          "type": "tuple"
        }
      ],
      "name": "setProfile",
      "outputs": [],
      "stateMutability": "nonpayable",
      "type": "function"
    },
    {
      "inputs": [
        {
          "internalType": "address",
          "name": "",
          "type": "address"
        }
      ],
      "name": "soulSbtCount",
      "outputs": [
        {
          "internalType": "uint256",
          "name": "",
          "type": "uint256"
        }
      ],
      "stateMutability": "view",
      "type": "function"
    },
    {
      "inputs": [],
      "name": "ticker",
      "outputs": [
        {
          "internalType": "string",
          "name": "",
          "type": "string"
        }
      ],
      "stateMutability": "view",
      "type": "function"
    },
    {
      "inputs": [
        {
          "internalType": "address",
          "name": "_soul",
          "type": "address"
        },
        {
          "components": [
            {
              "internalType": "string",
              "name": "identity",
              "type": "string"
            },
            {
              "internalType": "string",
              "name": "url",
              "type": "string"
            },
            {
              "internalType": "uint256",
              "name": "score",
              "type": "uint256"
            },
            {
              "internalType": "uint256",
              "name": "timestamp",
              "type": "uint256"
            }
          ],
          "internalType": "struct SBT.Soul",
          "name": "_soulData",
          "type": "tuple"
        }
      ],
      "name": "update",
      "outputs": [],
      "stateMutability": "nonpayable",
      "type": "function"
    }
  ],
  "bytecode": "0x60806040527fc5d2460186f7233c927e7db2dcc703c0e500b653ca82273b7bfad8045d85a47060001b6009556000600a553480156200003d57600080fd5b50604051620036383803806200363883398181016040528101906200006391906200032b565b81600690805190602001906200007b929190620000de565b50806007908051906020019062000094929190620000de565b5033600860006101000a81548173ffffffffffffffffffffffffffffffffffffffff021916908373ffffffffffffffffffffffffffffffffffffffff160217905550505062000414565b828054620000ec90620003df565b90600052602060002090601f0160209004810192826200011057600085556200015c565b82601f106200012b57805160ff19168380011785556200015c565b828001600101855582156200015c579182015b828111156200015b5782518255916020019190600101906200013e565b5b5090506200016b91906200016f565b5090565b5b808211156200018a57600081600090555060010162000170565b5090565b6000604051905090565b600080fd5b600080fd5b600080fd5b600080fd5b6000601f19601f8301169050919050565b7f4e487b7100000000000000000000000000000000000000000000000000000000600052604160045260246000fd5b620001f782620001ac565b810181811067ffffffffffffffff82111715620002195762000218620001bd565b5b80604052505050565b60006200022e6200018e565b90506200023c8282620001ec565b919050565b600067ffffffffffffffff8211156200025f576200025e620001bd565b5b6200026a82620001ac565b9050602081019050919050565b60005b83811015620002975780820151818401526020810190506200027a565b83811115620002a7576000848401525b50505050565b6000620002c4620002be8462000241565b62000222565b905082815260208101848484011115620002e357620002e2620001a7565b5b620002f084828562000277565b509392505050565b600082601f83011262000310576200030f620001a2565b5b815162000322848260208601620002ad565b91505092915050565b6000806040838503121562000345576200034462000198565b5b600083015167ffffffffffffffff8111156200036657620003656200019d565b5b6200037485828601620002f8565b925050602083015167ffffffffffffffff8111156200039857620003976200019d565b5b620003a685828601620002f8565b9150509250929050565b7f4e487b7100000000000000000000000000000000000000000000000000000000600052602260045260246000fd5b60006002820490506001821680620003f857607f821691505b6020821081036200040e576200040d620003b0565b5b50919050565b61321480620004246000396000f3fe608060405234801561001057600080fd5b50600436106101375760003560e01c806371dec1d6116100b8578063b90082511161007c578063b900825114610386578063bb419e1b146103ba578063bdd75202146103d6578063d904176d14610406578063dce4aa1b14610422578063f5a3317d1461043e57610137565b806371dec1d6146102bc57806387b605a5146102ec57806389afcb441461031c5780638ba47bdd1461033857806396367d4c1461035657610137565b806330cff224116100ff57806330cff224146101de578063352451c11461020e578063375577b41461023e578063570ca7351461026e57806366cfe97f1461028c57610137565b806306fdde031461013c5780630c168bf71461015a57806320a2d60b1461017657806320c5429b14610192578063251d3157146101ae575b600080fd5b61014461046e565b60405161015191906121e6565b60405180910390f35b610174600480360381019061016f91906123e7565b6104fc565b005b610190600480360381019061018b9190612546565b61084c565b005b6101ac60048036038101906101a791906125a2565b6109b2565b005b6101c860048036038101906101c391906125a2565b610c22565b6040516101d591906125de565b60405180910390f35b6101f860048036038101906101f391906125f9565b610c55565b60405161020591906126fc565b60405180910390f35b6102286004803603810190610223919061271e565b610e24565b604051610235919061275a565b60405180910390f35b6102586004803603810190610253919061271e565b610e3c565b60405161026591906128cb565b60405180910390f35b61027661112f565b60405161028391906125de565b60405180910390f35b6102a660048036038101906102a1919061271e565b611155565b6040516102b391906126fc565b60405180910390f35b6102d660048036038101906102d191906125a2565b6112e6565b6040516102e39190612963565b60405180910390f35b6103066004803603810190610301919061271e565b61144a565b6040516103139190612994565b60405180910390f35b6103366004803603810190610331919061271e565b6114ed565b005b610340611797565b60405161034d91906121e6565b60405180910390f35b610370600480360381019061036b919061271e565b611825565b60405161037d9190612a5e565b60405180910390f35b6103a0600480360381019061039b91906125a2565b6118f2565b6040516103b1959493929190612a80565b60405180910390f35b6103d460048036038101906103cf9190612546565b6119fa565b005b6103f060048036038101906103eb919061271e565b611c3f565b6040516103fd9190612994565b60405180910390f35b610420600480360381019061041b91906125f9565b611cb3565b005b61043c60048036038101906104379190612546565b611e0d565b005b610458600480360381019061045391906125f9565b611f47565b6040516104659190612994565b60405180910390f35b6006805461047b90612b09565b80601f01602080910402602001604051908101604052809291908181526020018280546104a790612b09565b80156104f45780601f106104c9576101008083540402835291602001916104f4565b820191906000526020600020905b8154815290600101906020018083116104d757829003601f168201915b505050505081565b600954600360008573ffffffffffffffffffffffffffffffffffffffff1673ffffffffffffffffffffffffffffffffffffffff16815260200190815260200160002060000160405161054e9190612bd9565b604051809103902003610596576040517f08c379a000000000000000000000000000000000000000000000000000000000815260040161058d90612c62565b60405180910390fd5b600954600360003373ffffffffffffffffffffffffffffffffffffffff1673ffffffffffffffffffffffffffffffffffffffff1681526020019081526020016000206000016040516105e89190612bd9565b604051809103902003610630576040517f08c379a000000000000000000000000000000000000000000000000000000000815260040161062790612cf4565b60405180910390fd5b60006040518060a00160405280600a5481526020013373ffffffffffffffffffffffffffffffffffffffff16815260200184151581526020018381526020016001151581525090806001815401808255809150506001900390600052602060002090600402016000909190919091506000820151816000015560208201518160010160006101000a81548173ffffffffffffffffffffffffffffffffffffffff021916908373ffffffffffffffffffffffffffffffffffffffff16021790555060408201518160010160146101000a81548160ff021916908315150217905550606082015181600201908051906020019061072c929190611ff9565b5060808201518160030160006101000a81548160ff02191690831515021790555050508260026000600a54815260200190815260200160002060006101000a81548173ffffffffffffffffffffffffffffffffffffffff021916908373ffffffffffffffffffffffffffffffffffffffff160217905550600160008473ffffffffffffffffffffffffffffffffffffffff1673ffffffffffffffffffffffffffffffffffffffff16815260200190815260200160002060008154809291906107f390612d43565b9190505550600a600081548092919061080b90612d43565b91905055507fa328081b89fa2a8c125b882f505f0a9ef17623cd428d7de77f609076d85d25e08360405161083f91906125de565b60405180910390a1505050565b600954600360008473ffffffffffffffffffffffffffffffffffffffff1673ffffffffffffffffffffffffffffffffffffffff16815260200190815260200160002060000160405161089e9190612bd9565b6040518091039020146108e6576040517f08c379a00000000000000000000000000000000000000000000000000000000081526004016108dd90612dd7565b60405180910390fd5b80600360008473ffffffffffffffffffffffffffffffffffffffff1673ffffffffffffffffffffffffffffffffffffffff1681526020019081526020016000206000820151816000019080519060200190610942929190611ff9565b50602082015181600101908051906020019061095f929190611ff9565b5060408201518160020155606082015181600301559050507f3c3284d117c92d0b1699230960384e794dcba184cc48ff114fe4fed20c9b0565826040516109a691906125de565b60405180910390a15050565b600a548111156109f7576040517f08c379a00000000000000000000000000000000000000000000000000000000081526004016109ee90612e43565b60405180910390fd5b6001151560008281548110610a0f57610a0e612e63565b5b906000526020600020906004020160030160009054906101000a900460ff16151514610a70576040517f08c379a0000000000000000000000000000000000000000000000000000000008152600401610a6790612ede565b60405180910390fd5b3373ffffffffffffffffffffffffffffffffffffffff1660008281548110610a9b57610a9a612e63565b5b906000526020600020906004020160010160009054906101000a900473ffffffffffffffffffffffffffffffffffffffff1673ffffffffffffffffffffffffffffffffffffffff1614610b23576040517f08c379a0000000000000000000000000000000000000000000000000000000008152600401610b1a90612f4a565b60405180910390fd5b600160006002600084815260200190815260200160002060009054906101000a900473ffffffffffffffffffffffffffffffffffffffff1673ffffffffffffffffffffffffffffffffffffffff1673ffffffffffffffffffffffffffffffffffffffff1681526020019081526020016000206000815480929190610ba690612f6a565b91905055506000808281548110610bc057610bbf612e63565b5b906000526020600020906004020160030160006101000a81548160ff0219169083151502179055507fdb43aa42235c8d63908794a952603e8d43a549383d13123c3d893a3fc2e6249581604051610c17919061275a565b60405180910390a150565b60026020528060005260406000206000915054906101000a900473ffffffffffffffffffffffffffffffffffffffff1681565b610c5d61207f565b600460008473ffffffffffffffffffffffffffffffffffffffff1673ffffffffffffffffffffffffffffffffffffffff16815260200190815260200160002060008373ffffffffffffffffffffffffffffffffffffffff1673ffffffffffffffffffffffffffffffffffffffff168152602001908152602001600020604051806080016040529081600082018054610cf490612b09565b80601f0160208091040260200160405190810160405280929190818152602001828054610d2090612b09565b8015610d6d5780601f10610d4257610100808354040283529160200191610d6d565b820191906000526020600020905b815481529060010190602001808311610d5057829003601f168201915b50505050508152602001600182018054610d8690612b09565b80601f0160208091040260200160405190810160405280929190818152602001828054610db290612b09565b8015610dff5780601f10610dd457610100808354040283529160200191610dff565b820191906000526020600020905b815481529060010190602001808311610de257829003601f168201915b5050505050815260200160028201548152602001600382015481525050905092915050565b60016020528060005260406000206000915090505481565b60606000600160008473ffffffffffffffffffffffffffffffffffffffff1673ffffffffffffffffffffffffffffffffffffffff1681526020019081526020016000205467ffffffffffffffff811115610e9957610e986122bc565b5b604051908082528060200260200182016040528015610ed257816020015b610ebf6120a7565b815260200190600190039081610eb75790505b5090506000805b600080549050811015611124578473ffffffffffffffffffffffffffffffffffffffff166002600083815260200190815260200160002060009054906101000a900473ffffffffffffffffffffffffffffffffffffffff1673ffffffffffffffffffffffffffffffffffffffff16148015610f8a57506001151560008281548110610f6757610f66612e63565b5b906000526020600020906004020160030160009054906101000a900460ff161515145b156111115760008181548110610fa357610fa2612e63565b5b90600052602060002090600402016040518060a0016040529081600082015481526020016001820160009054906101000a900473ffffffffffffffffffffffffffffffffffffffff1673ffffffffffffffffffffffffffffffffffffffff1673ffffffffffffffffffffffffffffffffffffffff1681526020016001820160149054906101000a900460ff1615151515815260200160028201805461104790612b09565b80601f016020809104026020016040519081016040528092919081815260200182805461107390612b09565b80156110c05780601f10611095576101008083540402835291602001916110c0565b820191906000526020600020905b8154815290600101906020018083116110a357829003601f168201915b505050505081526020016003820160009054906101000a900460ff1615151515815250508383815181106110f7576110f6612e63565b5b6020026020010181905250818061110d90612d43565b9250505b808061111c90612d43565b915050610ed9565b508192505050919050565b600860009054906101000a900473ffffffffffffffffffffffffffffffffffffffff1681565b61115d61207f565b600360008373ffffffffffffffffffffffffffffffffffffffff1673ffffffffffffffffffffffffffffffffffffffff1681526020019081526020016000206040518060800160405290816000820180546111b790612b09565b80601f01602080910402602001604051908101604052809291908181526020018280546111e390612b09565b80156112305780601f1061120557610100808354040283529160200191611230565b820191906000526020600020905b81548152906001019060200180831161121357829003601f168201915b5050505050815260200160018201805461124990612b09565b80601f016020809104026020016040519081016040528092919081815260200182805461127590612b09565b80156112c25780601f10611297576101008083540402835291602001916112c2565b820191906000526020600020905b8154815290600101906020018083116112a557829003601f168201915b50505050508152602001600282015481526020016003820154815250509050919050565b6112ee6120a7565b6000828154811061130257611301612e63565b5b90600052602060002090600402016040518060a0016040529081600082015481526020016001820160009054906101000a900473ffffffffffffffffffffffffffffffffffffffff1673ffffffffffffffffffffffffffffffffffffffff1673ffffffffffffffffffffffffffffffffffffffff1681526020016001820160149054906101000a900460ff161515151581526020016002820180546113a690612b09565b80601f01602080910402602001604051908101604052809291908181526020018280546113d290612b09565b801561141f5780601f106113f45761010080835404028352916020019161141f565b820191906000526020600020905b81548152906001019060200180831161140257829003601f168201915b505050505081526020016003820160009054906101000a900460ff1615151515815250509050919050565b600080600090505b6000805490508110156114e2578273ffffffffffffffffffffffffffffffffffffffff166002600083815260200190815260200160002060009054906101000a900473ffffffffffffffffffffffffffffffffffffffff1673ffffffffffffffffffffffffffffffffffffffff16036114cf5760019150506114e8565b80806114da90612d43565b915050611452565b50600090505b919050565b8073ffffffffffffffffffffffffffffffffffffffff163373ffffffffffffffffffffffffffffffffffffffff161461155b576040517f08c379a000000000000000000000000000000000000000000000000000000000815260040161155290613005565b60405180910390fd5b60005b6000805490508110156116a7578173ffffffffffffffffffffffffffffffffffffffff166002600083815260200190815260200160002060009054906101000a900473ffffffffffffffffffffffffffffffffffffffff1673ffffffffffffffffffffffffffffffffffffffff160361169457600081815481106115e5576115e4612e63565b5b90600052602060002090600402016000808201600090556001820160006101000a81549073ffffffffffffffffffffffffffffffffffffffff02191690556001820160146101000a81549060ff021916905560028201600061164791906120f0565b6003820160006101000a81549060ff021916905550506002600082815260200190815260200160002060006101000a81549073ffffffffffffffffffffffffffffffffffffffff02191690555b808061169f90612d43565b91505061155e565b50600360008273ffffffffffffffffffffffffffffffffffffffff1673ffffffffffffffffffffffffffffffffffffffff168152602001908152602001600020600080820160006116f891906120f0565b60018201600061170891906120f0565b600282016000905560038201600090555050600160008273ffffffffffffffffffffffffffffffffffffffff1673ffffffffffffffffffffffffffffffffffffffff168152602001908152602001600020600090557fe22de1457cb61fb61b60176bc4235a9abd19466126b46692bc14fc573f0992498160405161178c91906125de565b60405180910390a150565b600780546117a490612b09565b80601f01602080910402602001604051908101604052809291908181526020018280546117d090612b09565b801561181d5780601f106117f25761010080835404028352916020019161181d565b820191906000526020600020905b81548152906001019060200180831161180057829003601f168201915b505050505081565b6060600560008373ffffffffffffffffffffffffffffffffffffffff1673ffffffffffffffffffffffffffffffffffffffff1681526020019081526020016000208054806020026020016040519081016040528092919081815260200182805480156118e657602002820191906000526020600020905b8160009054906101000a900473ffffffffffffffffffffffffffffffffffffffff1673ffffffffffffffffffffffffffffffffffffffff168152602001906001019080831161189c575b50505050509050919050565b6000818154811061190257600080fd5b90600052602060002090600402016000915090508060000154908060010160009054906101000a900473ffffffffffffffffffffffffffffffffffffffff16908060010160149054906101000a900460ff169080600201805461196490612b09565b80601f016020809104026020016040519081016040528092919081815260200182805461199090612b09565b80156119dd5780601f106119b2576101008083540402835291602001916119dd565b820191906000526020600020905b8154815290600101906020018083116119c057829003601f168201915b5050505050908060030160009054906101000a900460ff16905085565b600954600360008473ffffffffffffffffffffffffffffffffffffffff1673ffffffffffffffffffffffffffffffffffffffff168152602001908152602001600020600001604051611a4c9190612bd9565b604051809103902003611a94576040517f08c379a0000000000000000000000000000000000000000000000000000000008152600401611a8b90613097565b60405180910390fd5b80600460003373ffffffffffffffffffffffffffffffffffffffff1673ffffffffffffffffffffffffffffffffffffffff16815260200190815260200160002060008473ffffffffffffffffffffffffffffffffffffffff1673ffffffffffffffffffffffffffffffffffffffff1681526020019081526020016000206000820151816000019080519060200190611b2d929190611ff9565b506020820151816001019080519060200190611b4a929190611ff9565b506040820151816002015560608201518160030155905050600560008373ffffffffffffffffffffffffffffffffffffffff1673ffffffffffffffffffffffffffffffffffffffff168152602001908152602001600020339080600181540180825580915050600190039060005260206000200160009091909190916101000a81548173ffffffffffffffffffffffffffffffffffffffff021916908373ffffffffffffffffffffffffffffffffffffffff1602179055507fa23ac7e4240980962523625b2d1d3aa221354fcc90b374cf0e21685c94288d3e3383604051611c339291906130b7565b60405180910390a15050565b6000600954600360008473ffffffffffffffffffffffffffffffffffffffff1673ffffffffffffffffffffffffffffffffffffffff168152602001908152602001600020600001604051611c939190612bd9565b604051809103902003611ca95760009050611cae565b600190505b919050565b8073ffffffffffffffffffffffffffffffffffffffff163373ffffffffffffffffffffffffffffffffffffffff1614611d21576040517f08c379a0000000000000000000000000000000000000000000000000000000008152600401611d1890613152565b60405180910390fd5b600460008373ffffffffffffffffffffffffffffffffffffffff1673ffffffffffffffffffffffffffffffffffffffff16815260200190815260200160002060003373ffffffffffffffffffffffffffffffffffffffff1673ffffffffffffffffffffffffffffffffffffffff16815260200190815260200160002060008082016000611dae91906120f0565b600182016000611dbe91906120f0565b6002820160009055600382016000905550507fbecbd0337c25e4ba3474143b6f75afd8775e682adad51f00d8f5b0740406fd338282604051611e019291906130b7565b60405180910390a15050565b8173ffffffffffffffffffffffffffffffffffffffff163373ffffffffffffffffffffffffffffffffffffffff1614611e7b576040517f08c379a0000000000000000000000000000000000000000000000000000000008152600401611e72906131be565b60405180910390fd5b80600360008473ffffffffffffffffffffffffffffffffffffffff1673ffffffffffffffffffffffffffffffffffffffff1681526020019081526020016000206000820151816000019080519060200190611ed7929190611ff9565b506020820151816001019080519060200190611ef4929190611ff9565b5060408201518160020155606082015181600301559050507fd456720fd185d4060f5cea4d82775d2af95048c1e10f227ec35bae950a4be2a882604051611f3b91906125de565b60405180910390a15050565b6000600954600460008573ffffffffffffffffffffffffffffffffffffffff1673ffffffffffffffffffffffffffffffffffffffff16815260200190815260200160002060008473ffffffffffffffffffffffffffffffffffffffff1673ffffffffffffffffffffffffffffffffffffffff168152602001908152602001600020600001604051611fd89190612bd9565b604051809103902003611fee5760009050611ff3565b600190505b92915050565b82805461200590612b09565b90600052602060002090601f016020900481019282612027576000855561206e565b82601f1061204057805160ff191683800117855561206e565b8280016001018555821561206e579182015b8281111561206d578251825591602001919060010190612052565b5b50905061207b9190612130565b5090565b6040518060800160405280606081526020016060815260200160008152602001600081525090565b6040518060a0016040528060008152602001600073ffffffffffffffffffffffffffffffffffffffff168152602001600015158152602001606081526020016000151581525090565b5080546120fc90612b09565b6000825580601f1061210e575061212d565b601f01602090049060005260206000209081019061212c9190612130565b5b50565b5b80821115612149576000816000905550600101612131565b5090565b600081519050919050565b600082825260208201905092915050565b60005b8381101561218757808201518184015260208101905061216c565b83811115612196576000848401525b50505050565b6000601f19601f8301169050919050565b60006121b88261214d565b6121c28185612158565b93506121d2818560208601612169565b6121db8161219c565b840191505092915050565b6000602082019050818103600083015261220081846121ad565b905092915050565b6000604051905090565b600080fd5b600080fd5b600073ffffffffffffffffffffffffffffffffffffffff82169050919050565b60006122478261221c565b9050919050565b6122578161223c565b811461226257600080fd5b50565b6000813590506122748161224e565b92915050565b60008115159050919050565b61228f8161227a565b811461229a57600080fd5b50565b6000813590506122ac81612286565b92915050565b600080fd5b600080fd5b7f4e487b7100000000000000000000000000000000000000000000000000000000600052604160045260246000fd5b6122f48261219c565b810181811067ffffffffffffffff82111715612313576123126122bc565b5b80604052505050565b6000612326612208565b905061233282826122eb565b919050565b600067ffffffffffffffff821115612352576123516122bc565b5b61235b8261219c565b9050602081019050919050565b82818337600083830152505050565b600061238a61238584612337565b61231c565b9050828152602081018484840111156123a6576123a56122b7565b5b6123b1848285612368565b509392505050565b600082601f8301126123ce576123cd6122b2565b5b81356123de848260208601612377565b91505092915050565b600080600060608486031215612400576123ff612212565b5b600061240e86828701612265565b935050602061241f8682870161229d565b925050604084013567ffffffffffffffff8111156124405761243f612217565b5b61244c868287016123b9565b9150509250925092565b600080fd5b600080fd5b6000819050919050565b61247381612460565b811461247e57600080fd5b50565b6000813590506124908161246a565b92915050565b6000608082840312156124ac576124ab612456565b5b6124b6608061231c565b9050600082013567ffffffffffffffff8111156124d6576124d561245b565b5b6124e2848285016123b9565b600083015250602082013567ffffffffffffffff8111156125065761250561245b565b5b612512848285016123b9565b602083015250604061252684828501612481565b604083015250606061253a84828501612481565b60608301525092915050565b6000806040838503121561255d5761255c612212565b5b600061256b85828601612265565b925050602083013567ffffffffffffffff81111561258c5761258b612217565b5b61259885828601612496565b9150509250929050565b6000602082840312156125b8576125b7612212565b5b60006125c684828501612481565b91505092915050565b6125d88161223c565b82525050565b60006020820190506125f360008301846125cf565b92915050565b600080604083850312156126105761260f612212565b5b600061261e85828601612265565b925050602061262f85828601612265565b9150509250929050565b600082825260208201905092915050565b60006126558261214d565b61265f8185612639565b935061266f818560208601612169565b6126788161219c565b840191505092915050565b61268c81612460565b82525050565b600060808301600083015184820360008601526126af828261264a565b915050602083015184820360208601526126c9828261264a565b91505060408301516126de6040860182612683565b5060608301516126f16060860182612683565b508091505092915050565b600060208201905081810360008301526127168184612692565b905092915050565b60006020828403121561273457612733612212565b5b600061274284828501612265565b91505092915050565b61275481612460565b82525050565b600060208201905061276f600083018461274b565b92915050565b600081519050919050565b600082825260208201905092915050565b6000819050602082019050919050565b6127aa8161223c565b82525050565b6127b98161227a565b82525050565b600060a0830160008301516127d76000860182612683565b5060208301516127ea60208601826127a1565b5060408301516127fd60408601826127b0565b5060608301518482036060860152612815828261264a565b915050608083015161282a60808601826127b0565b508091505092915050565b600061284183836127bf565b905092915050565b6000602082019050919050565b600061286182612775565b61286b8185612780565b93508360208202850161287d85612791565b8060005b858110156128b9578484038952815161289a8582612835565b94506128a583612849565b925060208a01995050600181019050612881565b50829750879550505050505092915050565b600060208201905081810360008301526128e58184612856565b905092915050565b600060a0830160008301516129056000860182612683565b50602083015161291860208601826127a1565b50604083015161292b60408601826127b0565b5060608301518482036060860152612943828261264a565b915050608083015161295860808601826127b0565b508091505092915050565b6000602082019050818103600083015261297d81846128ed565b905092915050565b61298e8161227a565b82525050565b60006020820190506129a96000830184612985565b92915050565b600081519050919050565b600082825260208201905092915050565b6000819050602082019050919050565b60006129e783836127a1565b60208301905092915050565b6000602082019050919050565b6000612a0b826129af565b612a1581856129ba565b9350612a20836129cb565b8060005b83811015612a51578151612a3888826129db565b9750612a43836129f3565b925050600181019050612a24565b5085935050505092915050565b60006020820190508181036000830152612a788184612a00565b905092915050565b600060a082019050612a95600083018861274b565b612aa260208301876125cf565b612aaf6040830186612985565b8181036060830152612ac181856121ad565b9050612ad06080830184612985565b9695505050505050565b7f4e487b7100000000000000000000000000000000000000000000000000000000600052602260045260246000fd5b60006002820490506001821680612b2157607f821691505b602082108103612b3457612b33612ada565b5b50919050565b600081905092915050565b60008190508160005260206000209050919050565b60008154612b6781612b09565b612b718186612b3a565b94506001821660008114612b8c5760018114612b9d57612bd0565b60ff19831686528186019350612bd0565b612ba685612b45565b60005b83811015612bc857815481890152600182019150602081019050612ba9565b838801955050505b50505092915050565b6000612be58284612b5a565b915081905092915050565b7f43616e6e6f742073656e642053425420746f20536f756c20746861742068617360008201527f206e6f74206265656e206d696e74656400000000000000000000000000000000602082015250565b6000612c4c603083612158565b9150612c5782612bf0565b604082019050919050565b60006020820190508181036000830152612c7b81612c3f565b9050919050565b7f41747465737465722068617320746f2068617665206120536f756c207468656d60008201527f73656c7665730000000000000000000000000000000000000000000000000000602082015250565b6000612cde602683612158565b9150612ce982612c82565b604082019050919050565b60006020820190508181036000830152612d0d81612cd1565b9050919050565b7f4e487b7100000000000000000000000000000000000000000000000000000000600052601160045260246000fd5b6000612d4e82612460565b91507fffffffffffffffffffffffffffffffffffffffffffffffffffffffffffffffff8203612d8057612d7f612d14565b5b600182019050919050565b7f536f756c20616c72656164792065786973747300000000000000000000000000600082015250565b6000612dc1601383612158565b9150612dcc82612d8b565b602082019050919050565b60006020820190508181036000830152612df081612db4565b9050919050565b7f456e746572656420546f6b656e496420646f6573206e6f742065786973740000600082015250565b6000612e2d601e83612158565b9150612e3882612df7565b602082019050919050565b60006020820190508181036000830152612e5c81612e20565b9050919050565b7f4e487b7100000000000000000000000000000000000000000000000000000000600052603260045260246000fd5b7f5342542068617320616c7265616479206265656e207265766f6b656400000000600082015250565b6000612ec8601c83612158565b9150612ed382612e92565b602082019050919050565b60006020820190508181036000830152612ef781612ebb565b9050919050565b7f4f6e6c79206174746573746572206d6179207265766f6b6520546f6b656e0000600082015250565b6000612f34601e83612158565b9150612f3f82612efe565b602082019050919050565b60006020820190508181036000830152612f6381612f27565b9050919050565b6000612f7582612460565b915060008203612f8857612f87612d14565b5b600182039050919050565b7f4f6e6c7920536f756c204f776e657220686176652072696768747320746f206460008201527f656c657465207468656972206461746100000000000000000000000000000000602082015250565b6000612fef603083612158565b9150612ffa82612f93565b604082019050919050565b6000602082019050818103600083015261301e81612fe2565b9050919050565b7f43616e6e6f742063726561746520612070726f66696c6520666f72206120736f60008201527f756c207468617420686173206e6f74206265656e206d696e7465640000000000602082015250565b6000613081603b83612158565b915061308c82613025565b604082019050919050565b600060208201905081810360008301526130b081613074565b9050919050565b60006040820190506130cc60008301856125cf565b6130d960208301846125cf565b9392505050565b7f4f6e6c7920757365727320686176652072696768747320746f2064656c65746560008201527f2074686569722070726f66696c65206461746100000000000000000000000000602082015250565b600061313c603383612158565b9150613147826130e0565b604082019050919050565b6000602082019050818103600083015261316b8161312f565b9050919050565b7f4f6e6c792075736572732063616e2075706461746520736f756c206461746100600082015250565b60006131a8601f83612158565b91506131b382613172565b602082019050919050565b600060208201905081810360008301526131d78161319b565b905091905056fea26469706673582212203e60fae8cfc838b1ef3998513eec2cb50e6e6dd8c2db5122876b80207b31eb0b64736f6c634300080d0033",
  "linkReferences": {},
  "deployedLinkReferences": {}
}