{
  "_format": "hh-sol-artifact-1",
  "contractName": "SBT",
  "sourceName": "contracts/SBT.sol",
  "abi": [
    {
      "anonymous": false,
      "inputs": [
        {
          "indexed": false,
          "internalType": "address",
          "name": "_soul",
          "type": "address"
        }
      ],
      "name": "Attest",
      "type": "event"
    },
    {
      "anonymous": false,
      "inputs": [
        {
          "indexed": false,
          "internalType": "address",
          "name": "_soul",
          "type": "address"
        }
      ],
      "name": "Burn",
      "type": "event"
    },
    {
      "anonymous": false,
      "inputs": [
        {
          "indexed": false,
          "internalType": "address",
          "name": "_soul",
          "type": "address"
        }
      ],
      "name": "Mint",
      "type": "event"
    },
    {
      "anonymous": false,
      "inputs": [
        {
          "indexed": false,
          "internalType": "address",
          "name": "_profiler",
          "type": "address"
        },
        {
          "indexed": false,
          "internalType": "address",
          "name": "_soul",
          "type": "address"
        }
      ],
      "name": "RemoveProfile",
      "type": "event"
    },
    {
      "anonymous": false,
      "inputs": [
        {
          "indexed": false,
          "internalType": "uint256",
          "name": "_tokenId",
          "type": "uint256"
        }
      ],
      "name": "Revoke",
      "type": "event"
    },
    {
      "anonymous": false,
      "inputs": [
        {
          "indexed": false,
          "internalType": "address",
          "name": "_profiler",
          "type": "address"
        },
        {
          "indexed": false,
          "internalType": "address",
          "name": "_soul",
          "type": "address"
        }
      ],
      "name": "SetProfile",
      "type": "event"
    },
    {
      "anonymous": false,
      "inputs": [
        {
          "indexed": false,
          "internalType": "address",
          "name": "_soul",
          "type": "address"
        }
      ],
      "name": "Update",
      "type": "event"
    },
    {
      "inputs": [
        {
          "internalType": "uint256",
          "name": "",
          "type": "uint256"
        }
      ],
      "name": "SbtToSoul",
      "outputs": [
        {
          "internalType": "address",
          "name": "",
          "type": "address"
        }
      ],
      "stateMutability": "view",
      "type": "function"
    },
    {
      "inputs": [
        {
          "internalType": "address",
          "name": "_targetSoul",
          "type": "address"
        },
        {
          "internalType": "bool",
          "name": "_reputation",
          "type": "bool"
        },
        {
          "internalType": "string",
          "name": "_explanation_url",
          "type": "string"
        }
      ],
      "name": "attest",
      "outputs": [],
      "stateMutability": "nonpayable",
      "type": "function"
    },
    {
      "inputs": [
        {
          "internalType": "address",
          "name": "_soul",
          "type": "address"
        }
      ],
      "name": "burn",
      "outputs": [],
      "stateMutability": "nonpayable",
      "type": "function"
    },
    {
      "inputs": [
        {
          "internalType": "uint256",
          "name": "_sbt",
          "type": "uint256"
        }
      ],
      "name": "getSbt",
      "outputs": [
        {
          "components": [
            {
              "internalType": "uint256",
              "name": "tokenId",
              "type": "uint256"
            },
            {
              "internalType": "address",
              "name": "attester",
              "type": "address"
            },
            {
              "internalType": "bool",
              "name": "reputation",
              "type": "bool"
            },
            {
              "internalType": "string",
              "name": "explanation_url",
              "type": "string"
            },
            {
              "internalType": "bool",
              "name": "active",
              "type": "bool"
            },
            {
              "internalType": "uint256",
              "name": "timestamp",
              "type": "uint256"
            }
          ],
          "internalType": "struct SBT.Sbt",
          "name": "",
          "type": "tuple"
        }
      ],
      "stateMutability": "view",
      "type": "function"
    },
    {
      "inputs": [
        {
          "internalType": "address",
          "name": "_soul",
          "type": "address"
        }
      ],
      "name": "getSbtsBySoul",
      "outputs": [
        {
          "components": [
            {
              "internalType": "uint256",
              "name": "tokenId",
              "type": "uint256"
            },
            {
              "internalType": "address",
              "name": "attester",
              "type": "address"
            },
            {
              "internalType": "bool",
              "name": "reputation",
              "type": "bool"
            },
            {
              "internalType": "string",
              "name": "explanation_url",
              "type": "string"
            },
            {
              "internalType": "bool",
              "name": "active",
              "type": "bool"
            },
            {
              "internalType": "uint256",
              "name": "timestamp",
              "type": "uint256"
            }
          ],
          "internalType": "struct SBT.Sbt[]",
          "name": "",
          "type": "tuple[]"
        }
      ],
      "stateMutability": "view",
      "type": "function"
    },
    {
      "inputs": [
        {
          "internalType": "address",
          "name": "_soul",
          "type": "address"
        }
      ],
      "name": "getSoul",
      "outputs": [
        {
          "components": [
            {
              "internalType": "string",
              "name": "identity",
              "type": "string"
            },
            {
              "internalType": "string",
              "name": "url",
              "type": "string"
            },
            {
              "internalType": "uint256",
              "name": "score",
              "type": "uint256"
            },
            {
              "internalType": "uint256",
              "name": "timestamp",
              "type": "uint256"
            }
          ],
          "internalType": "struct SBT.Soul",
          "name": "",
          "type": "tuple"
        }
      ],
      "stateMutability": "view",
      "type": "function"
    },
    {
      "inputs": [
        {
          "internalType": "address",
          "name": "_soul",
          "type": "address"
        }
      ],
      "name": "hasSbt",
      "outputs": [
        {
          "internalType": "bool",
          "name": "",
          "type": "bool"
        }
      ],
      "stateMutability": "view",
      "type": "function"
    },
    {
      "inputs": [
        {
          "internalType": "address",
          "name": "_soul",
          "type": "address"
        }
      ],
      "name": "hasSoul",
      "outputs": [
        {
          "internalType": "bool",
          "name": "",
          "type": "bool"
        }
      ],
      "stateMutability": "view",
      "type": "function"
    },
    {
      "inputs": [
        {
          "internalType": "address",
          "name": "_soul",
          "type": "address"
        },
        {
          "components": [
            {
              "internalType": "string",
              "name": "identity",
              "type": "string"
            },
            {
              "internalType": "string",
              "name": "url",
              "type": "string"
            },
            {
              "internalType": "uint256",
              "name": "score",
              "type": "uint256"
            },
            {
              "internalType": "uint256",
              "name": "timestamp",
              "type": "uint256"
            }
          ],
          "internalType": "struct SBT.Soul",
          "name": "_soulData",
          "type": "tuple"
        }
      ],
      "name": "mint",
      "outputs": [],
      "stateMutability": "nonpayable",
      "type": "function"
    },
    {
      "inputs": [
        {
          "internalType": "uint256",
          "name": "_tokenId",
          "type": "uint256"
        }
      ],
      "name": "revoke",
      "outputs": [],
      "stateMutability": "nonpayable",
      "type": "function"
    },
    {
      "inputs": [
        {
          "internalType": "uint256",
          "name": "",
          "type": "uint256"
        }
      ],
      "name": "sbts",
      "outputs": [
        {
          "internalType": "uint256",
          "name": "tokenId",
          "type": "uint256"
        },
        {
          "internalType": "address",
          "name": "attester",
          "type": "address"
        },
        {
          "internalType": "bool",
          "name": "reputation",
          "type": "bool"
        },
        {
          "internalType": "string",
          "name": "explanation_url",
          "type": "string"
        },
        {
          "internalType": "bool",
          "name": "active",
          "type": "bool"
        },
        {
          "internalType": "uint256",
          "name": "timestamp",
          "type": "uint256"
        }
      ],
      "stateMutability": "view",
      "type": "function"
    },
    {
      "inputs": [
        {
          "internalType": "address",
          "name": "",
          "type": "address"
        }
      ],
      "name": "soulSbtCount",
      "outputs": [
        {
          "internalType": "uint256",
          "name": "",
          "type": "uint256"
        }
      ],
      "stateMutability": "view",
      "type": "function"
    }
  ],
  "bytecode": "0x60806040527fc5d2460186f7233c927e7db2dcc703c0e500b653ca82273b7bfad8045d85a47060001b600655600060075534801561003c57600080fd5b506123bb8061004c6000396000f3fe608060405234801561001057600080fd5b50600436106100b45760003560e01c806366cfe97f1161007157806366cfe97f1461019d57806371dec1d6146101cd57806387b605a5146101fd57806389afcb441461022d578063b900825114610249578063bdd752021461027e576100b4565b80630c168bf7146100b957806320a2d60b146100d557806320c5429b146100f1578063251d31571461010d578063352451c11461013d578063375577b41461016d575b600080fd5b6100d360048036038101906100ce91906117c5565b6102ae565b005b6100ef60048036038101906100ea9190611924565b61060e565b005b61010b60048036038101906101069190611980565b610774565b005b61012760048036038101906101229190611980565b61095c565b60405161013491906119bc565b60405180910390f35b610157600480360381019061015291906119d7565b61098f565b6040516101649190611a13565b60405180910390f35b610187600480360381019061018291906119d7565b6109a7565b6040516101949190611c2e565b60405180910390f35b6101b760048036038101906101b291906119d7565b610ca4565b6040516101c49190611cba565b60405180910390f35b6101e760048036038101906101e29190611980565b610e35565b6040516101f49190611d65565b60405180910390f35b610217600480360381019061021291906119d7565b610fa3565b6040516102249190611d96565b60405180910390f35b610247600480360381019061024291906119d7565b611046565b005b610263600480360381019061025e9190611980565b6112f8565b60405161027596959493929190611dfb565b60405180910390f35b610298600480360381019061029391906119d7565b611406565b6040516102a59190611d96565b60405180910390f35b600654600360008573ffffffffffffffffffffffffffffffffffffffff1673ffffffffffffffffffffffffffffffffffffffff1681526020019081526020016000206000016040516103009190611f62565b604051809103902003610348576040517f08c379a000000000000000000000000000000000000000000000000000000000815260040161033f90611feb565b60405180910390fd5b600654600360003373ffffffffffffffffffffffffffffffffffffffff1673ffffffffffffffffffffffffffffffffffffffff16815260200190815260200160002060000160405161039a9190611f62565b6040518091039020036103e2576040517f08c379a00000000000000000000000000000000000000000000000000000000081526004016103d99061207d565b60405180910390fd5b60006040518060c0016040528060075481526020013373ffffffffffffffffffffffffffffffffffffffff16815260200184151581526020018381526020016001151581526020014281525090806001815401808255809150506001900390600052602060002090600502016000909190919091506000820151816000015560208201518160010160006101000a81548173ffffffffffffffffffffffffffffffffffffffff021916908373ffffffffffffffffffffffffffffffffffffffff16021790555060408201518160010160146101000a81548160ff02191690831515021790555060608201518160020190805190602001906104e492919061147a565b5060808201518160030160006101000a81548160ff02191690831515021790555060a0820151816004015550508260026000600754815260200190815260200160002060006101000a81548173ffffffffffffffffffffffffffffffffffffffff021916908373ffffffffffffffffffffffffffffffffffffffff160217905550600160008473ffffffffffffffffffffffffffffffffffffffff1673ffffffffffffffffffffffffffffffffffffffff16815260200190815260200160002060008154809291906105b5906120cc565b9190505550600760008154809291906105cd906120cc565b91905055507fa328081b89fa2a8c125b882f505f0a9ef17623cd428d7de77f609076d85d25e08360405161060191906119bc565b60405180910390a1505050565b600654600360008473ffffffffffffffffffffffffffffffffffffffff1673ffffffffffffffffffffffffffffffffffffffff1681526020019081526020016000206000016040516106609190611f62565b6040518091039020146106a8576040517f08c379a000000000000000000000000000000000000000000000000000000000815260040161069f90612160565b60405180910390fd5b80600360008473ffffffffffffffffffffffffffffffffffffffff1673ffffffffffffffffffffffffffffffffffffffff168152602001908152602001600020600082015181600001908051906020019061070492919061147a565b50602082015181600101908051906020019061072192919061147a565b5060408201518160020155606082015181600301559050507f3c3284d117c92d0b1699230960384e794dcba184cc48ff114fe4fed20c9b05658260405161076891906119bc565b60405180910390a15050565b6007548111156107b9576040517f08c379a00000000000000000000000000000000000000000000000000000000081526004016107b0906121cc565b60405180910390fd5b60011515600082815481106107d1576107d06121ec565b5b906000526020600020906005020160030160009054906101000a900460ff16151514610832576040517f08c379a000000000000000000000000000000000000000000000000000000000815260040161082990612267565b60405180910390fd5b3373ffffffffffffffffffffffffffffffffffffffff166000828154811061085d5761085c6121ec565b5b906000526020600020906005020160010160009054906101000a900473ffffffffffffffffffffffffffffffffffffffff1673ffffffffffffffffffffffffffffffffffffffff16146108e5576040517f08c379a00000000000000000000000000000000000000000000000000000000081526004016108dc906122d3565b60405180910390fd5b60008082815481106108fa576108f96121ec565b5b906000526020600020906005020160030160006101000a81548160ff0219169083151502179055507fdb43aa42235c8d63908794a952603e8d43a549383d13123c3d893a3fc2e62495816040516109519190611a13565b60405180910390a150565b60026020528060005260406000206000915054906101000a900473ffffffffffffffffffffffffffffffffffffffff1681565b60016020528060005260406000206000915090505481565b60606000600160008473ffffffffffffffffffffffffffffffffffffffff1673ffffffffffffffffffffffffffffffffffffffff1681526020019081526020016000205467ffffffffffffffff811115610a0457610a0361169a565b5b604051908082528060200260200182016040528015610a3d57816020015b610a2a611500565b815260200190600190039081610a225790505b5090506000805b600080549050811015610c99578473ffffffffffffffffffffffffffffffffffffffff166002600083815260200190815260200160002060009054906101000a900473ffffffffffffffffffffffffffffffffffffffff1673ffffffffffffffffffffffffffffffffffffffff16148015610af557506001151560008281548110610ad257610ad16121ec565b5b906000526020600020906005020160030160009054906101000a900460ff161515145b15610c865760008181548110610b0e57610b0d6121ec565b5b90600052602060002090600502016040518060c0016040529081600082015481526020016001820160009054906101000a900473ffffffffffffffffffffffffffffffffffffffff1673ffffffffffffffffffffffffffffffffffffffff1673ffffffffffffffffffffffffffffffffffffffff1681526020016001820160149054906101000a900460ff16151515158152602001600282018054610bb290611e92565b80601f0160208091040260200160405190810160405280929190818152602001828054610bde90611e92565b8015610c2b5780601f10610c0057610100808354040283529160200191610c2b565b820191906000526020600020905b815481529060010190602001808311610c0e57829003601f168201915b505050505081526020016003820160009054906101000a900460ff16151515158152602001600482015481525050838381518110610c6c57610c6b6121ec565b5b60200260200101819052508180610c82906120cc565b9250505b8080610c91906120cc565b915050610a44565b508192505050919050565b610cac611550565b600360008373ffffffffffffffffffffffffffffffffffffffff1673ffffffffffffffffffffffffffffffffffffffff168152602001908152602001600020604051806080016040529081600082018054610d0690611e92565b80601f0160208091040260200160405190810160405280929190818152602001828054610d3290611e92565b8015610d7f5780601f10610d5457610100808354040283529160200191610d7f565b820191906000526020600020905b815481529060010190602001808311610d6257829003601f168201915b50505050508152602001600182018054610d9890611e92565b80601f0160208091040260200160405190810160405280929190818152602001828054610dc490611e92565b8015610e115780601f10610de657610100808354040283529160200191610e11565b820191906000526020600020905b815481529060010190602001808311610df457829003601f168201915b50505050508152602001600282015481526020016003820154815250509050919050565b610e3d611500565b60008281548110610e5157610e506121ec565b5b90600052602060002090600502016040518060c0016040529081600082015481526020016001820160009054906101000a900473ffffffffffffffffffffffffffffffffffffffff1673ffffffffffffffffffffffffffffffffffffffff1673ffffffffffffffffffffffffffffffffffffffff1681526020016001820160149054906101000a900460ff16151515158152602001600282018054610ef590611e92565b80601f0160208091040260200160405190810160405280929190818152602001828054610f2190611e92565b8015610f6e5780601f10610f4357610100808354040283529160200191610f6e565b820191906000526020600020905b815481529060010190602001808311610f5157829003601f168201915b505050505081526020016003820160009054906101000a900460ff161515151581526020016004820154815250509050919050565b600080600090505b60008054905081101561103b578273ffffffffffffffffffffffffffffffffffffffff166002600083815260200190815260200160002060009054906101000a900473ffffffffffffffffffffffffffffffffffffffff1673ffffffffffffffffffffffffffffffffffffffff1603611028576001915050611041565b8080611033906120cc565b915050610fab565b50600090505b919050565b8073ffffffffffffffffffffffffffffffffffffffff163373ffffffffffffffffffffffffffffffffffffffff16146110b4576040517f08c379a00000000000000000000000000000000000000000000000000000000081526004016110ab90612365565b60405180910390fd5b60005b600080549050811015611208578173ffffffffffffffffffffffffffffffffffffffff166002600083815260200190815260200160002060009054906101000a900473ffffffffffffffffffffffffffffffffffffffff1673ffffffffffffffffffffffffffffffffffffffff16036111f5576000818154811061113e5761113d6121ec565b5b90600052602060002090600502016000808201600090556001820160006101000a81549073ffffffffffffffffffffffffffffffffffffffff02191690556001820160146101000a81549060ff02191690556002820160006111a09190611578565b6003820160006101000a81549060ff0219169055600482016000905550506002600082815260200190815260200160002060006101000a81549073ffffffffffffffffffffffffffffffffffffffff02191690555b8080611200906120cc565b9150506110b7565b50600360008273ffffffffffffffffffffffffffffffffffffffff1673ffffffffffffffffffffffffffffffffffffffff168152602001908152602001600020600080820160006112599190611578565b6001820160006112699190611578565b600282016000905560038201600090555050600160008273ffffffffffffffffffffffffffffffffffffffff1673ffffffffffffffffffffffffffffffffffffffff168152602001908152602001600020600090557fe22de1457cb61fb61b60176bc4235a9abd19466126b46692bc14fc573f099249816040516112ed91906119bc565b60405180910390a150565b6000818154811061130857600080fd5b90600052602060002090600502016000915090508060000154908060010160009054906101000a900473ffffffffffffffffffffffffffffffffffffffff16908060010160149054906101000a900460ff169080600201805461136a90611e92565b80601f016020809104026020016040519081016040528092919081815260200182805461139690611e92565b80156113e35780601f106113b8576101008083540402835291602001916113e3565b820191906000526020600020905b8154815290600101906020018083116113c657829003601f168201915b5050505050908060030160009054906101000a900460ff16908060040154905086565b6000600654600360008473ffffffffffffffffffffffffffffffffffffffff1673ffffffffffffffffffffffffffffffffffffffff16815260200190815260200160002060000160405161145a9190611f62565b6040518091039020036114705760009050611475565b600190505b919050565b82805461148690611e92565b90600052602060002090601f0160209004810192826114a857600085556114ef565b82601f106114c157805160ff19168380011785556114ef565b828001600101855582156114ef579182015b828111156114ee5782518255916020019190600101906114d3565b5b5090506114fc91906115b8565b5090565b6040518060c0016040528060008152602001600073ffffffffffffffffffffffffffffffffffffffff16815260200160001515815260200160608152602001600015158152602001600081525090565b6040518060800160405280606081526020016060815260200160008152602001600081525090565b50805461158490611e92565b6000825580601f1061159657506115b5565b601f0160209004906000526020600020908101906115b491906115b8565b5b50565b5b808211156115d15760008160009055506001016115b9565b5090565b6000604051905090565b600080fd5b600080fd5b600073ffffffffffffffffffffffffffffffffffffffff82169050919050565b6000611614826115e9565b9050919050565b61162481611609565b811461162f57600080fd5b50565b6000813590506116418161161b565b92915050565b60008115159050919050565b61165c81611647565b811461166757600080fd5b50565b60008135905061167981611653565b92915050565b600080fd5b600080fd5b6000601f19601f8301169050919050565b7f4e487b7100000000000000000000000000000000000000000000000000000000600052604160045260246000fd5b6116d282611689565b810181811067ffffffffffffffff821117156116f1576116f061169a565b5b80604052505050565b60006117046115d5565b905061171082826116c9565b919050565b600067ffffffffffffffff8211156117305761172f61169a565b5b61173982611689565b9050602081019050919050565b82818337600083830152505050565b600061176861176384611715565b6116fa565b90508281526020810184848401111561178457611783611684565b5b61178f848285611746565b509392505050565b600082601f8301126117ac576117ab61167f565b5b81356117bc848260208601611755565b91505092915050565b6000806000606084860312156117de576117dd6115df565b5b60006117ec86828701611632565b93505060206117fd8682870161166a565b925050604084013567ffffffffffffffff81111561181e5761181d6115e4565b5b61182a86828701611797565b9150509250925092565b600080fd5b600080fd5b6000819050919050565b6118518161183e565b811461185c57600080fd5b50565b60008135905061186e81611848565b92915050565b60006080828403121561188a57611889611834565b5b61189460806116fa565b9050600082013567ffffffffffffffff8111156118b4576118b3611839565b5b6118c084828501611797565b600083015250602082013567ffffffffffffffff8111156118e4576118e3611839565b5b6118f084828501611797565b60208301525060406119048482850161185f565b60408301525060606119188482850161185f565b60608301525092915050565b6000806040838503121561193b5761193a6115df565b5b600061194985828601611632565b925050602083013567ffffffffffffffff81111561196a576119696115e4565b5b61197685828601611874565b9150509250929050565b600060208284031215611996576119956115df565b5b60006119a48482850161185f565b91505092915050565b6119b681611609565b82525050565b60006020820190506119d160008301846119ad565b92915050565b6000602082840312156119ed576119ec6115df565b5b60006119fb84828501611632565b91505092915050565b611a0d8161183e565b82525050565b6000602082019050611a286000830184611a04565b92915050565b600081519050919050565b600082825260208201905092915050565b6000819050602082019050919050565b611a638161183e565b82525050565b611a7281611609565b82525050565b611a8181611647565b82525050565b600081519050919050565b600082825260208201905092915050565b60005b83811015611ac1578082015181840152602081019050611aa6565b83811115611ad0576000848401525b50505050565b6000611ae182611a87565b611aeb8185611a92565b9350611afb818560208601611aa3565b611b0481611689565b840191505092915050565b600060c083016000830151611b276000860182611a5a565b506020830151611b3a6020860182611a69565b506040830151611b4d6040860182611a78565b5060608301518482036060860152611b658282611ad6565b9150506080830151611b7a6080860182611a78565b5060a0830151611b8d60a0860182611a5a565b508091505092915050565b6000611ba48383611b0f565b905092915050565b6000602082019050919050565b6000611bc482611a2e565b611bce8185611a39565b935083602082028501611be085611a4a565b8060005b85811015611c1c5784840389528151611bfd8582611b98565b9450611c0883611bac565b925060208a01995050600181019050611be4565b50829750879550505050505092915050565b60006020820190508181036000830152611c488184611bb9565b905092915050565b60006080830160008301518482036000860152611c6d8282611ad6565b91505060208301518482036020860152611c878282611ad6565b9150506040830151611c9c6040860182611a5a565b506060830151611caf6060860182611a5a565b508091505092915050565b60006020820190508181036000830152611cd48184611c50565b905092915050565b600060c083016000830151611cf46000860182611a5a565b506020830151611d076020860182611a69565b506040830151611d1a6040860182611a78565b5060608301518482036060860152611d328282611ad6565b9150506080830151611d476080860182611a78565b5060a0830151611d5a60a0860182611a5a565b508091505092915050565b60006020820190508181036000830152611d7f8184611cdc565b905092915050565b611d9081611647565b82525050565b6000602082019050611dab6000830184611d87565b92915050565b600082825260208201905092915050565b6000611dcd82611a87565b611dd78185611db1565b9350611de7818560208601611aa3565b611df081611689565b840191505092915050565b600060c082019050611e106000830189611a04565b611e1d60208301886119ad565b611e2a6040830187611d87565b8181036060830152611e3c8186611dc2565b9050611e4b6080830185611d87565b611e5860a0830184611a04565b979650505050505050565b7f4e487b7100000000000000000000000000000000000000000000000000000000600052602260045260246000fd5b60006002820490506001821680611eaa57607f821691505b602082108103611ebd57611ebc611e63565b5b50919050565b600081905092915050565b60008190508160005260206000209050919050565b60008154611ef081611e92565b611efa8186611ec3565b94506001821660008114611f155760018114611f2657611f59565b60ff19831686528186019350611f59565b611f2f85611ece565b60005b83811015611f5157815481890152600182019150602081019050611f32565b838801955050505b50505092915050565b6000611f6e8284611ee3565b915081905092915050565b7f43616e6e6f742073656e642053425420746f20536f756c20746861742068617360008201527f206e6f74206265656e206d696e74656400000000000000000000000000000000602082015250565b6000611fd5603083611db1565b9150611fe082611f79565b604082019050919050565b6000602082019050818103600083015261200481611fc8565b9050919050565b7f41747465737465722068617320746f2068617665206120536f756c207468656d60008201527f73656c7665730000000000000000000000000000000000000000000000000000602082015250565b6000612067602683611db1565b91506120728261200b565b604082019050919050565b600060208201905081810360008301526120968161205a565b9050919050565b7f4e487b7100000000000000000000000000000000000000000000000000000000600052601160045260246000fd5b60006120d78261183e565b91507fffffffffffffffffffffffffffffffffffffffffffffffffffffffffffffffff82036121095761210861209d565b5b600182019050919050565b7f536f756c20616c72656164792065786973747300000000000000000000000000600082015250565b600061214a601383611db1565b915061215582612114565b602082019050919050565b600060208201905081810360008301526121798161213d565b9050919050565b7f456e746572656420546f6b656e496420646f6573206e6f742065786973740000600082015250565b60006121b6601e83611db1565b91506121c182612180565b602082019050919050565b600060208201905081810360008301526121e5816121a9565b9050919050565b7f4e487b7100000000000000000000000000000000000000000000000000000000600052603260045260246000fd5b7f5342542068617320616c7265616479206265656e207265766f6b656400000000600082015250565b6000612251601c83611db1565b915061225c8261221b565b602082019050919050565b6000602082019050818103600083015261228081612244565b9050919050565b7f4f6e6c79206174746573746572206d6179207265766f6b6520546f6b656e0000600082015250565b60006122bd601e83611db1565b91506122c882612287565b602082019050919050565b600060208201905081810360008301526122ec816122b0565b9050919050565b7f4f6e6c7920536f756c204f776e657220686176652072696768747320746f206460008201527f656c657465207468656972206461746100000000000000000000000000000000602082015250565b600061234f603083611db1565b915061235a826122f3565b604082019050919050565b6000602082019050818103600083015261237e81612342565b905091905056fea2646970667358221220f9c360b8f0378263848b1e7e6c347209ccb15d87c3f7c15008467afbb34bc67f64736f6c634300080d0033",
  "linkReferences": {},
  "deployedLinkReferences": {}
}